{
  "contractName": "FarmV2",
  "abi": [
    {
      "inputs": [
        {
          "internalType": "contract TokenV2",
          "name": "_token",
          "type": "address"
        }
      ],
      "stateMutability": "nonpayable",
      "type": "constructor"
    },
    {
      "anonymous": false,
      "inputs": [
        {
          "indexed": true,
          "internalType": "address",
          "name": "_address",
          "type": "address"
        }
      ],
      "name": "FarmCreated",
      "type": "event"
    },
    {
      "anonymous": false,
      "inputs": [
        {
          "indexed": true,
          "internalType": "address",
          "name": "_address",
          "type": "address"
        }
      ],
      "name": "FarmSynced",
      "type": "event"
    },
    {
      "anonymous": false,
      "inputs": [
        {
          "indexed": true,
          "internalType": "address",
          "name": "_address",
          "type": "address"
        },
        {
          "indexed": false,
          "internalType": "address",
          "name": "_item",
          "type": "address"
        }
      ],
      "name": "ItemCrafted",
      "type": "event"
    },
    {
      "stateMutability": "payable",
      "type": "receive"
    },
    {
      "inputs": [
        {
          "components": [
            {
              "internalType": "address",
              "name": "account",
              "type": "address"
            },
            {
              "internalType": "uint256",
              "name": "tokenAmount",
              "type": "uint256"
            },
            {
              "internalType": "uint256",
              "name": "size",
              "type": "uint256"
            },
            {
              "internalType": "enum FarmV2.Fruit",
              "name": "fruit",
              "type": "uint8"
            }
          ],
          "internalType": "struct FarmV2.V1Farm[]",
          "name": "farms",
          "type": "tuple[]"
        }
      ],
      "name": "uploadV1Farms",
      "outputs": [],
      "stateMutability": "nonpayable",
      "type": "function"
    },
    {
      "inputs": [],
      "name": "finishMigration",
      "outputs": [],
      "stateMutability": "nonpayable",
      "type": "function"
    },
    {
      "inputs": [
        {
          "internalType": "address payable",
          "name": "_charity",
          "type": "address"
        }
      ],
      "name": "createFarm",
      "outputs": [],
      "stateMutability": "payable",
      "type": "function"
    },
    {
      "inputs": [
        {
          "internalType": "address",
          "name": "owner",
          "type": "address"
        }
      ],
      "name": "getLand",
      "outputs": [
        {
          "components": [
            {
              "internalType": "enum FarmV2.Fruit",
              "name": "fruit",
              "type": "uint8"
            },
            {
              "internalType": "uint256",
              "name": "createdAt",
              "type": "uint256"
            }
          ],
          "internalType": "struct FarmV2.Square[]",
          "name": "",
          "type": "tuple[]"
        }
      ],
      "stateMutability": "view",
      "type": "function"
    },
    {
      "inputs": [
        {
          "components": [
            {
              "internalType": "enum FarmV2.Action",
              "name": "action",
              "type": "uint8"
            },
            {
              "internalType": "enum FarmV2.Fruit",
              "name": "fruit",
              "type": "uint8"
            },
            {
              "internalType": "uint256",
              "name": "landIndex",
              "type": "uint256"
            },
            {
              "internalType": "uint256",
              "name": "createdAt",
              "type": "uint256"
            }
          ],
          "internalType": "struct FarmV2.Event[]",
          "name": "_events",
          "type": "tuple[]"
        }
      ],
      "name": "sync",
      "outputs": [
        {
          "components": [
            {
              "components": [
                {
                  "internalType": "enum FarmV2.Fruit",
                  "name": "fruit",
                  "type": "uint8"
                },
                {
                  "internalType": "uint256",
                  "name": "createdAt",
                  "type": "uint256"
                }
              ],
              "internalType": "struct FarmV2.Square[]",
              "name": "land",
              "type": "tuple[]"
            },
            {
              "internalType": "uint256",
              "name": "balance",
              "type": "uint256"
            }
          ],
          "internalType": "struct FarmV2.Farm",
          "name": "",
          "type": "tuple"
        }
      ],
      "stateMutability": "nonpayable",
      "type": "function"
    },
    {
      "inputs": [],
      "name": "levelUp",
      "outputs": [],
      "stateMutability": "nonpayable",
      "type": "function"
    },
    {
      "inputs": [
        {
          "internalType": "uint256",
          "name": "price",
          "type": "uint256"
        }
      ],
      "name": "getMarketPrice",
      "outputs": [
        {
          "internalType": "uint256",
          "name": "conversion",
          "type": "uint256"
        }
      ],
      "stateMutability": "view",
      "type": "function"
    },
    {
      "inputs": [
        {
          "internalType": "address",
          "name": "account",
          "type": "address"
        }
      ],
      "name": "getFarm",
      "outputs": [
        {
          "components": [
            {
              "internalType": "enum FarmV2.Fruit",
              "name": "fruit",
              "type": "uint8"
            },
            {
              "internalType": "uint256",
              "name": "createdAt",
              "type": "uint256"
            }
          ],
          "internalType": "struct FarmV2.Square[]",
          "name": "farm",
          "type": "tuple[]"
        }
      ],
      "stateMutability": "view",
      "type": "function"
    },
    {
      "inputs": [],
      "name": "getFarmCount",
      "outputs": [
        {
          "internalType": "uint256",
          "name": "count",
          "type": "uint256"
        }
      ],
      "stateMutability": "view",
      "type": "function"
    },
    {
      "inputs": [],
      "name": "myReward",
      "outputs": [
        {
          "internalType": "uint256",
          "name": "amount",
          "type": "uint256"
        }
      ],
      "stateMutability": "view",
      "type": "function"
    },
    {
      "inputs": [],
      "name": "receiveReward",
      "outputs": [],
      "stateMutability": "nonpayable",
      "type": "function"
    },
    {
      "inputs": [
        {
          "internalType": "address",
          "name": "resourceAddress",
          "type": "address"
        },
        {
          "internalType": "uint256",
          "name": "amount",
          "type": "uint256"
        }
      ],
      "name": "stake",
      "outputs": [],
      "stateMutability": "nonpayable",
      "type": "function"
    },
    {
      "inputs": [
        {
          "internalType": "address",
          "name": "tokenAddress",
          "type": "address"
        },
        {
          "components": [
            {
              "internalType": "address",
              "name": "materialAddress",
              "type": "address"
            },
            {
              "internalType": "uint256",
              "name": "amount",
              "type": "uint256"
            }
          ],
          "internalType": "struct FarmV2.Cost[]",
          "name": "costs",
          "type": "tuple[]"
        }
      ],
      "name": "createRecipe",
      "outputs": [],
      "stateMutability": "nonpayable",
      "type": "function"
    },
    {
      "inputs": [
        {
          "internalType": "address",
          "name": "resourceAddress",
          "type": "address"
        },
        {
          "internalType": "address",
          "name": "requires",
          "type": "address"
        }
      ],
      "name": "createResource",
      "outputs": [],
      "stateMutability": "nonpayable",
      "type": "function"
    },
    {
      "inputs": [
        {
          "internalType": "address",
          "name": "recipeAddress",
          "type": "address"
        },
        {
          "internalType": "uint256",
          "name": "amount",
          "type": "uint256"
        }
      ],
      "name": "craft",
      "outputs": [],
      "stateMutability": "nonpayable",
      "type": "function"
    },
    {
      "inputs": [
        {
          "internalType": "address",
          "name": "recipeAddress",
          "type": "address"
        },
        {
          "internalType": "uint256",
          "name": "tokenId",
          "type": "uint256"
        }
      ],
      "name": "mintNFT",
      "outputs": [],
      "stateMutability": "nonpayable",
      "type": "function"
    },
    {
      "inputs": [
        {
          "internalType": "address",
          "name": "recipeAddress",
          "type": "address"
        }
      ],
      "name": "getRecipe",
      "outputs": [
        {
          "components": [
            {
              "internalType": "address",
              "name": "outputAddress",
              "type": "address"
            },
            {
              "components": [
                {
                  "internalType": "address",
                  "name": "materialAddress",
                  "type": "address"
                },
                {
                  "internalType": "uint256",
                  "name": "amount",
                  "type": "uint256"
                }
              ],
              "internalType": "struct FarmV2.Cost[]",
              "name": "costs",
              "type": "tuple[]"
            }
          ],
          "internalType": "struct FarmV2.Recipe",
          "name": "recipe",
          "type": "tuple"
        }
      ],
      "stateMutability": "view",
      "type": "function"
    },
    {
      "inputs": [
        {
          "internalType": "address",
          "name": "resourceAddress",
          "type": "address"
        }
      ],
      "name": "getResource",
      "outputs": [
        {
          "components": [
            {
              "internalType": "address",
              "name": "outputAddress",
              "type": "address"
            },
            {
              "internalType": "address",
              "name": "inputAddress",
              "type": "address"
            }
          ],
          "internalType": "struct FarmV2.Resource",
          "name": "resource",
          "type": "tuple"
        }
      ],
      "stateMutability": "view",
      "type": "function"
    }
  ],
  "bytecode": "0x608060405260006001556001600260006101000a81548160ff0219169083151502179055506107086006553480156200003757600080fd5b5060405162005c8138038062005c8183398181016040528101906200005d9190620000bb565b806000806101000a81548173ffffffffffffffffffffffffffffffffffffffff021916908373ffffffffffffffffffffffffffffffffffffffff1602179055505062000149565b600081519050620000b5816200012f565b92915050565b600060208284031215620000ce57600080fd5b6000620000de84828501620000a4565b91505092915050565b6000620000f4826200010f565b9050919050565b60006200010882620000e7565b9050919050565b600073ffffffffffffffffffffffffffffffffffffffff82169050919050565b6200013a81620000fb565b81146200014657600080fd5b50565b615b2880620001596000396000f3fe60806040526004361061010d5760003560e01c8063827a7dac11610095578063ac7d8bd111610064578063ac7d8bd114610365578063adc9772e1461038e578063c1d942c1146103b7578063d53f9c9b146103e0578063ff3d9e4f1461041d57610114565b8063827a7dac146102ab57806388d761f2146102e85780638928378e146102ff5780638cc0519b1461033c57610114565b8063429692a7116100dc578063429692a7146101c65780634ea1ecf9146101f1578063614e4cdb146102085780636e9f81e5146102455780637c9c17781461026e57610114565b8063061278c0146101195780633bfc187c146101355780633c168eab14610172578063428495701461019b57610114565b3661011457005b600080fd5b610133600480360381019061012e91906148c2565b610434565b005b34801561014157600080fd5b5061015c60048036038101906101579190614899565b610abf565b6040516101699190615476565b60405180910390f35b34801561017e57600080fd5b506101996004803603810190610194919061497b565b610b94565b005b3480156101a757600080fd5b506101b0610d62565b6040516101bd91906157f7565b60405180910390f35b3480156101d257600080fd5b506101db610ffd565b6040516101e891906157f7565b60405180910390f35b3480156101fd57600080fd5b50610206611007565b005b34801561021457600080fd5b5061022f600480360381019061022a9190614899565b6113c4565b60405161023c9190615476565b60405180910390f35b34801561025157600080fd5b5061026c600480360381019061026791906149f8565b611499565b005b34801561027a57600080fd5b5061029560048036038101906102909190614899565b6117ea565b6040516102a291906157ba565b60405180910390f35b3480156102b757600080fd5b506102d260048036038101906102cd9190614899565b611958565b6040516102df91906157dc565b60405180910390f35b3480156102f457600080fd5b506102fd611a5d565b005b34801561030b57600080fd5b5061032660048036038101906103219190614a62565b611a7a565b60405161033391906157f7565b60405180910390f35b34801561034857600080fd5b50610363600480360381019061035e9190614927565b611aa2565b005b34801561037157600080fd5b5061038c600480360381019061038791906148eb565b611efd565b005b34801561039a57600080fd5b506103b560048036038101906103b0919061497b565b612297565b005b3480156103c357600080fd5b506103de60048036038101906103d9919061497b565b61257c565b005b3480156103ec57600080fd5b50610407600480360381019061040291906149b7565b612749565b6040516104149190615798565b60405180910390f35b34801561042957600080fd5b50610432612b21565b005b6000600460003373ffffffffffffffffffffffffffffffffffffffff1673ffffffffffffffffffffffffffffffffffffffff16815260200190815260200160002054146104b6576040517f08c379a00000000000000000000000000000000000000000000000000000000081526004016104ad906154d8565b60405180910390fd5b60008060009054906101000a900473ffffffffffffffffffffffffffffffffffffffff1673ffffffffffffffffffffffffffffffffffffffff1663313ce5676040518163ffffffff1660e01b815260040160206040518083038186803b15801561051f57600080fd5b505afa158015610533573d6000803e3d6000fd5b505050506040513d601f19601f820116820180604052508101906105579190614ab4565b60ff16905060018103600a0a6001023410156105a8576040517f08c379a000000000000000000000000000000000000000000000000000000000815260040161059f90615658565b60405180910390fd5b73060697e9d4eea886ebece57a974facd53a40865b73ffffffffffffffffffffffffffffffffffffffff168273ffffffffffffffffffffffffffffffffffffffff161480610635575073d3f81260a44a1df7a7269cf66abd9c7e4f8cdcd173ffffffffffffffffffffffffffffffffffffffff168273ffffffffffffffffffffffffffffffffffffffff16145b8061067f5750733c8cb169281196737c493affa8f49a9d823bb9c573ffffffffffffffffffffffffffffffffffffffff168273ffffffffffffffffffffffffffffffffffffffff16145b6106be576040517f08c379a00000000000000000000000000000000000000000000000000000000081526004016106b5906156d8565b60405180910390fd5b6000600360003373ffffffffffffffffffffffffffffffffffffffff1673ffffffffffffffffffffffffffffffffffffffff1681526020019081526020016000209050600060405180604001604052806000600781111561071b57fe5b815260200160008152509050600060405180604001604052806001600781111561074157fe5b8152602001600081525090508282908060018154018082558091505060019003906000526020600020906002020160009091909190915060008201518160000160006101000a81548160ff0219169083600781111561079c57fe5b02179055506020820151816001015550508281908060018154018082558091505060019003906000526020600020906002020160009091909190915060008201518160000160006101000a81548160ff021916908360078111156107fc57fe5b02179055506020820151816001015550508281908060018154018082558091505060019003906000526020600020906002020160009091909190915060008201518160000160006101000a81548160ff0219169083600781111561085c57fe5b02179055506020820151816001015550508281908060018154018082558091505060019003906000526020600020906002020160009091909190915060008201518160000160006101000a81548160ff021916908360078111156108bc57fe5b02179055506020820151816001015550508282908060018154018082558091505060019003906000526020600020906002020160009091909190915060008201518160000160006101000a81548160ff0219169083600781111561091c57fe5b021790555060208201518160010155505042600460003373ffffffffffffffffffffffffffffffffffffffff1673ffffffffffffffffffffffffffffffffffffffff1681526020019081526020016000208190555042600560003373ffffffffffffffffffffffffffffffffffffffff1673ffffffffffffffffffffffffffffffffffffffff168152602001908152602001600020819055506000808673ffffffffffffffffffffffffffffffffffffffff16346040516109dc906153a2565b60006040518083038185875af1925050503d8060008114610a19576040519150601f19603f3d011682016040523d82523d6000602084013e610a1e565b606091505b509150915081610a63576040517f08c379a0000000000000000000000000000000000000000000000000000000008152600401610a5a906155b8565b60405180910390fd5b600180600082825401925050819055503373ffffffffffffffffffffffffffffffffffffffff167f46963f16723a084f2199eb74021bd97647aa6c8960612a9a031ce509d40d4ca760405160405180910390a250505050505050565b6060600360008373ffffffffffffffffffffffffffffffffffffffff1673ffffffffffffffffffffffffffffffffffffffff168152602001908152602001600020805480602002602001604051908101604052809291908181526020016000905b82821015610b8957838290600052602060002090600202016040518060400160405290816000820160009054906101000a900460ff166007811115610b6157fe5b6007811115610b6c57fe5b815260200160018201548152505081526020019060010190610b20565b505050509050919050565b6000600960008473ffffffffffffffffffffffffffffffffffffffff1673ffffffffffffffffffffffffffffffffffffffff1681526020019081526020016000206040518060400160405290816000820160009054906101000a900473ffffffffffffffffffffffffffffffffffffffff1673ffffffffffffffffffffffffffffffffffffffff1673ffffffffffffffffffffffffffffffffffffffff1681526020016000820160149054906101000a900460ff16151515158152505090508060200151610c97576040517f08c379a0000000000000000000000000000000000000000000000000000000008152600401610c8e906154f8565b60405180910390fd5b610ca2836001612cb0565b8273ffffffffffffffffffffffffffffffffffffffff166340c10f1933846040518363ffffffff1660e01b8152600401610cdd929190615424565b600060405180830381600087803b158015610cf757600080fd5b505af1158015610d0b573d6000803e3d6000fd5b505050503373ffffffffffffffffffffffffffffffffffffffff167fa3861d07b228ca9388790f0511b1694eb1c7398116202f27fd54838c07d2e6cc84604051610d5591906153b7565b60405180910390a2505050565b600080610d6e33612fdc565b11610dae576040517f08c379a0000000000000000000000000000000000000000000000000000000008152600401610da590615778565b60405180910390fd5b6000600560003373ffffffffffffffffffffffffffffffffffffffff1673ffffffffffffffffffffffffffffffffffffffff1681526020019081526020016000205490506000610e0a6203f4804261302590919063ffffffff16565b9050808210610e4e576040517f08c379a0000000000000000000000000000000000000000000000000000000008152600401610e4590615558565b60405180910390fd5b6000600360003373ffffffffffffffffffffffffffffffffffffffff1673ffffffffffffffffffffffffffffffffffffffff16815260200190815260200160002080549050905060008060009054906101000a900473ffffffffffffffffffffffffffffffffffffffff1673ffffffffffffffffffffffffffffffffffffffff166370a08231306040518263ffffffff1660e01b8152600401610ef191906153d2565b60206040518083038186803b158015610f0957600080fd5b505afa158015610f1d573d6000803e3d6000fd5b505050506040513d601f19601f82011682018060405250810190610f419190614a8b565b905060006001548281610f5057fe5b04905060058311610f7b57610f6f600a8261306f90919063ffffffff16565b95505050505050610ffa565b60088311610fa357610f9760058261306f90919063ffffffff16565b95505050505050610ffa565b600b8311610fcb57610fbf60028261306f90919063ffffffff16565b95505050505050610ffa565b610ff26002610fe46003846130b990919063ffffffff16565b61306f90919063ffffffff16565b955050505050505b90565b6000600154905090565b600061101233612fdc565b11611052576040517f08c379a000000000000000000000000000000000000000000000000000000000815260040161104990615778565b60405180910390fd5b6011600360003373ffffffffffffffffffffffffffffffffffffffff1673ffffffffffffffffffffffffffffffffffffffff1681526020019081526020016000208054905011156110d8576040517f08c379a00000000000000000000000000000000000000000000000000000000081526004016110cf90615598565b60405180910390fd5b6000600360003373ffffffffffffffffffffffffffffffffffffffff1673ffffffffffffffffffffffffffffffffffffffff1681526020019081526020016000209050600061112a828054905061313f565b9050600061113782611a7a565b905060008060009054906101000a900473ffffffffffffffffffffffffffffffffffffffff1673ffffffffffffffffffffffffffffffffffffffff166370a08231336040518263ffffffff1660e01b815260040161119591906153d2565b60206040518083038186803b1580156111ad57600080fd5b505afa1580156111c1573d6000803e3d6000fd5b505050506040513d601f19601f820116820180604052508101906111e59190614a8b565b90508181101561122a576040517f08c379a0000000000000000000000000000000000000000000000000000000008152600401611221906154b8565b60405180910390fd5b60008054906101000a900473ffffffffffffffffffffffffffffffffffffffff1673ffffffffffffffffffffffffffffffffffffffff166323b872dd3330856040518463ffffffff1660e01b8152600401611287939291906153ed565b602060405180830381600087803b1580156112a157600080fd5b505af11580156112b5573d6000803e3d6000fd5b505050506040513d601f19601f820116820180604052508101906112d99190614a39565b5060006040518060400160405280600160078111156112f457fe5b81526020016000815250905060005b6003811015611379578582908060018154018082558091505060019003906000526020600020906002020160009091909190915060008201518160000160006101000a81548160ff0219169083600781111561135b57fe5b02179055506020820151816001015550508080600101915050611303565b503373ffffffffffffffffffffffffffffffffffffffff167fbe35fe23c13a419d565edccb8c8bdedc160c5b9a82873e431b545080d6f3c68860405160405180910390a25050505050565b6060600360008373ffffffffffffffffffffffffffffffffffffffff1673ffffffffffffffffffffffffffffffffffffffff168152602001908152602001600020805480602002602001604051908101604052809291908181526020016000905b8282101561148e57838290600052602060002090600202016040518060400160405290816000820160009054906101000a900460ff16600781111561146657fe5b600781111561147157fe5b815260200160018201548152505081526020019060010190611425565b505050509050919050565b600260009054906101000a900460ff166114e8576040517f08c379a00000000000000000000000000000000000000000000000000000000081526004016114df906156f8565b60405180910390fd5b60008060009054906101000a900473ffffffffffffffffffffffffffffffffffffffff1673ffffffffffffffffffffffffffffffffffffffff1663313ce5676040518163ffffffff1660e01b815260040160206040518083038186803b15801561155157600080fd5b505afa158015611565573d6000803e3d6000fd5b505050506040513d601f19601f820116820180604052508101906115899190614ab4565b60ff16905060005b82518110156117e55760008382815181106115a857fe5b60200260200101519050600060036000836000015173ffffffffffffffffffffffffffffffffffffffff1673ffffffffffffffffffffffffffffffffffffffff1681526020019081526020016000209050600060405180604001604052808460600151600781111561161657fe5b81526020016000815250905060005b836040015181101561169c578282908060018154018082558091505060019003906000526020600020906002020160009091909190915060008201518160000160006101000a81548160ff0219169083600781111561168057fe5b0217905550602082015181600101555050600181019050611625565b504260046000856000015173ffffffffffffffffffffffffffffffffffffffff1673ffffffffffffffffffffffffffffffffffffffff168152602001908152602001600020819055504260056000856000015173ffffffffffffffffffffffffffffffffffffffff1673ffffffffffffffffffffffffffffffffffffffff1681526020019081526020016000208190555060008054906101000a900473ffffffffffffffffffffffffffffffffffffffff1673ffffffffffffffffffffffffffffffffffffffff166340c10f19846000015187600a0a8660200151026040518363ffffffff1660e01b815260040161179592919061544d565b600060405180830381600087803b1580156117af57600080fd5b505af11580156117c3573d6000803e3d6000fd5b5050505060018060008282540192505081905550505050600181019050611591565b505050565b6117f261446b565b600860008373ffffffffffffffffffffffffffffffffffffffff1673ffffffffffffffffffffffffffffffffffffffff1681526020019081526020016000206040518060400160405290816000820160009054906101000a900473ffffffffffffffffffffffffffffffffffffffff1673ffffffffffffffffffffffffffffffffffffffff1673ffffffffffffffffffffffffffffffffffffffff16815260200160018201805480602002602001604051908101604052809291908181526020016000905b8282101561194957838290600052602060002090600202016040518060400160405290816000820160009054906101000a900473ffffffffffffffffffffffffffffffffffffffff1673ffffffffffffffffffffffffffffffffffffffff1673ffffffffffffffffffffffffffffffffffffffff168152602001600182015481525050815260200190600101906118b7565b50505050815250509050919050565b61196061449b565b600760008373ffffffffffffffffffffffffffffffffffffffff1673ffffffffffffffffffffffffffffffffffffffff1681526020019081526020016000206040518060400160405290816000820160009054906101000a900473ffffffffffffffffffffffffffffffffffffffff1673ffffffffffffffffffffffffffffffffffffffff1673ffffffffffffffffffffffffffffffffffffffff1681526020016001820160009054906101000a900473ffffffffffffffffffffffffffffffffffffffff1673ffffffffffffffffffffffffffffffffffffffff1673ffffffffffffffffffffffffffffffffffffffff16815250509050919050565b6000600260006101000a81548160ff021916908315150217905550565b600080611a8561323c565b9050611a9a818461306f90919063ffffffff16565b915050919050565b60008054906101000a900473ffffffffffffffffffffffffffffffffffffffff1673ffffffffffffffffffffffffffffffffffffffff168273ffffffffffffffffffffffffffffffffffffffff161415611b31576040517f08c379a0000000000000000000000000000000000000000000000000000000008152600401611b2890615678565b60405180910390fd5b600960008373ffffffffffffffffffffffffffffffffffffffff1673ffffffffffffffffffffffffffffffffffffffff16815260200190815260200160002060000160149054906101000a900460ff1615611bc1576040517f08c379a0000000000000000000000000000000000000000000000000000000008152600401611bb890615498565b60405180910390fd5b60005b8151811015611e21576000828281518110611bdb57fe5b60200260200101516000015190506000600960008373ffffffffffffffffffffffffffffffffffffffff1673ffffffffffffffffffffffffffffffffffffffff1681526020019081526020016000206040518060400160405290816000820160009054906101000a900473ffffffffffffffffffffffffffffffffffffffff1673ffffffffffffffffffffffffffffffffffffffff1673ffffffffffffffffffffffffffffffffffffffff1681526020016000820160149054906101000a900460ff161515151581525050905060008054906101000a900473ffffffffffffffffffffffffffffffffffffffff1673ffffffffffffffffffffffffffffffffffffffff168273ffffffffffffffffffffffffffffffffffffffff161480611d03575080602001515b611d42576040517f08c379a0000000000000000000000000000000000000000000000000000000008152600401611d3990615718565b60405180910390fd5b600860008673ffffffffffffffffffffffffffffffffffffffff1673ffffffffffffffffffffffffffffffffffffffff168152602001908152602001600020600101848481518110611d9057fe5b6020026020010151908060018154018082558091505060019003906000526020600020906002020160009091909190915060008201518160000160006101000a81548173ffffffffffffffffffffffffffffffffffffffff021916908373ffffffffffffffffffffffffffffffffffffffff1602179055506020820151816001015550505050600181019050611bc4565b5060405180604001604052808373ffffffffffffffffffffffffffffffffffffffff16815260200160011515815250600960008473ffffffffffffffffffffffffffffffffffffffff1673ffffffffffffffffffffffffffffffffffffffff16815260200190815260200160002060008201518160000160006101000a81548173ffffffffffffffffffffffffffffffffffffffff021916908373ffffffffffffffffffffffffffffffffffffffff16021790555060208201518160000160146101000a81548160ff0219169083151502179055509050505050565b60008054906101000a900473ffffffffffffffffffffffffffffffffffffffff1673ffffffffffffffffffffffffffffffffffffffff168273ffffffffffffffffffffffffffffffffffffffff161415611f8c576040517f08c379a0000000000000000000000000000000000000000000000000000000008152600401611f8390615678565b60405180910390fd5b600960008373ffffffffffffffffffffffffffffffffffffffff1673ffffffffffffffffffffffffffffffffffffffff16815260200190815260200160002060000160149054906101000a900460ff161561201c576040517f08c379a000000000000000000000000000000000000000000000000000000000815260040161201390615518565b60405180910390fd5b600960008273ffffffffffffffffffffffffffffffffffffffff1673ffffffffffffffffffffffffffffffffffffffff16815260200190815260200160002060000160149054906101000a900460ff166120ab576040517f08c379a00000000000000000000000000000000000000000000000000000000081526004016120a290615718565b60405180910390fd5b60405180604001604052808373ffffffffffffffffffffffffffffffffffffffff1681526020018273ffffffffffffffffffffffffffffffffffffffff16815250600760008473ffffffffffffffffffffffffffffffffffffffff1673ffffffffffffffffffffffffffffffffffffffff16815260200190815260200160002060008201518160000160006101000a81548173ffffffffffffffffffffffffffffffffffffffff021916908373ffffffffffffffffffffffffffffffffffffffff16021790555060208201518160010160006101000a81548173ffffffffffffffffffffffffffffffffffffffff021916908373ffffffffffffffffffffffffffffffffffffffff16021790555090505060405180604001604052808373ffffffffffffffffffffffffffffffffffffffff16815260200160011515815250600960008473ffffffffffffffffffffffffffffffffffffffff1673ffffffffffffffffffffffffffffffffffffffff16815260200190815260200160002060008201518160000160006101000a81548173ffffffffffffffffffffffffffffffffffffffff021916908373ffffffffffffffffffffffffffffffffffffffff16021790555060208201518160000160146101000a81548160ff0219169083151502179055509050505050565b6000600960008473ffffffffffffffffffffffffffffffffffffffff1673ffffffffffffffffffffffffffffffffffffffff1681526020019081526020016000206040518060400160405290816000820160009054906101000a900473ffffffffffffffffffffffffffffffffffffffff1673ffffffffffffffffffffffffffffffffffffffff1673ffffffffffffffffffffffffffffffffffffffff1681526020016000820160149054906101000a900460ff1615151515815250509050806020015161239a576040517f08c379a000000000000000000000000000000000000000000000000000000000815260040161239190615698565b60405180910390fd5b6000600760008573ffffffffffffffffffffffffffffffffffffffff1673ffffffffffffffffffffffffffffffffffffffff1681526020019081526020016000206040518060400160405290816000820160009054906101000a900473ffffffffffffffffffffffffffffffffffffffff1673ffffffffffffffffffffffffffffffffffffffff1673ffffffffffffffffffffffffffffffffffffffff1681526020016001820160009054906101000a900473ffffffffffffffffffffffffffffffffffffffff1673ffffffffffffffffffffffffffffffffffffffff1673ffffffffffffffffffffffffffffffffffffffff16815250509050806020015173ffffffffffffffffffffffffffffffffffffffff16639dc29fac33856040518363ffffffff1660e01b81526004016124d3929190615424565b600060405180830381600087803b1580156124ed57600080fd5b505af1158015612501573d6000803e3d6000fd5b50505050806000015173ffffffffffffffffffffffffffffffffffffffff1663adc9772e33856040518363ffffffff1660e01b8152600401612544929190615424565b600060405180830381600087803b15801561255e57600080fd5b505af1158015612572573d6000803e3d6000fd5b5050505050505050565b6000600960008473ffffffffffffffffffffffffffffffffffffffff1673ffffffffffffffffffffffffffffffffffffffff1681526020019081526020016000206040518060400160405290816000820160009054906101000a900473ffffffffffffffffffffffffffffffffffffffff1673ffffffffffffffffffffffffffffffffffffffff1673ffffffffffffffffffffffffffffffffffffffff1681526020016000820160149054906101000a900460ff1615151515815250509050806020015161267f576040517f08c379a0000000000000000000000000000000000000000000000000000000008152600401612676906154f8565b60405180910390fd5b6126898383612cb0565b8273ffffffffffffffffffffffffffffffffffffffff166340c10f1933846040518363ffffffff1660e01b81526004016126c4929190615424565b600060405180830381600087803b1580156126de57600080fd5b505af11580156126f2573d6000803e3d6000fd5b505050503373ffffffffffffffffffffffffffffffffffffffff167fa3861d07b228ca9388790f0511b1694eb1c7398116202f27fd54838c07d2e6cc8460405161273c91906153b7565b60405180910390a2505050565b6127516144e1565b600061275c33612fdc565b1161279c576040517f08c379a000000000000000000000000000000000000000000000000000000000815260040161279390615778565b60405180910390fd5b60006127a78361349d565b90506000600360003373ffffffffffffffffffffffffffffffffffffffff1673ffffffffffffffffffffffffffffffffffffffff168152602001908152602001600020905060005b82600001515181101561286f578260000151818151811061280c57fe5b602002602001015182828154811061282057fe5b906000526020600020906002020160008201518160000160006101000a81548160ff0219169083600781111561285257fe5b0217905550602082015181600101559050506001810190506127ef565b5042600460003373ffffffffffffffffffffffffffffffffffffffff1673ffffffffffffffffffffffffffffffffffffffff1681526020019081526020016000208190555060008060009054906101000a900473ffffffffffffffffffffffffffffffffffffffff1673ffffffffffffffffffffffffffffffffffffffff166370a08231336040518263ffffffff1660e01b815260040161291091906153d2565b60206040518083038186803b15801561292857600080fd5b505afa15801561293c573d6000803e3d6000fd5b505050506040513d601f19601f820116820180604052508101906129609190614a8b565b90508083602001511115612a1c57600061298782856020015161302590919063ffffffff16565b905060008054906101000a900473ffffffffffffffffffffffffffffffffffffffff1673ffffffffffffffffffffffffffffffffffffffff166340c10f1933836040518363ffffffff1660e01b81526004016129e4929190615424565b600060405180830381600087803b1580156129fe57600080fd5b505af1158015612a12573d6000803e3d6000fd5b5050505050612ad3565b8083602001511015612ad2576000612a4184602001518361302590919063ffffffff16565b905060008054906101000a900473ffffffffffffffffffffffffffffffffffffffff1673ffffffffffffffffffffffffffffffffffffffff16639dc29fac33836040518363ffffffff1660e01b8152600401612a9e929190615424565b600060405180830381600087803b158015612ab857600080fd5b505af1158015612acc573d6000803e3d6000fd5b50505050505b5b3373ffffffffffffffffffffffffffffffffffffffff167fbe35fe23c13a419d565edccb8c8bdedc160c5b9a82873e431b545080d6f3c68860405160405180910390a2829350505050919050565b6000612b2c33612fdc565b11612b6c576040517f08c379a0000000000000000000000000000000000000000000000000000000008152600401612b6390615778565b60405180910390fd5b6000612b76610d62565b905060008111612bbb576040517f08c379a0000000000000000000000000000000000000000000000000000000008152600401612bb290615638565b60405180910390fd5b42600560003373ffffffffffffffffffffffffffffffffffffffff1673ffffffffffffffffffffffffffffffffffffffff1681526020019081526020016000208190555060008054906101000a900473ffffffffffffffffffffffffffffffffffffffff1673ffffffffffffffffffffffffffffffffffffffff1663a9059cbb33836040518363ffffffff1660e01b8152600401612c5a929190615424565b602060405180830381600087803b158015612c7457600080fd5b505af1158015612c88573d6000803e3d6000fd5b505050506040513d601f19601f82011682018060405250810190612cac9190614a39565b5050565b6000600860008473ffffffffffffffffffffffffffffffffffffffff1673ffffffffffffffffffffffffffffffffffffffff1681526020019081526020016000206040518060400160405290816000820160009054906101000a900473ffffffffffffffffffffffffffffffffffffffff1673ffffffffffffffffffffffffffffffffffffffff1673ffffffffffffffffffffffffffffffffffffffff16815260200160018201805480602002602001604051908101604052809291908181526020016000905b82821015612e0957838290600052602060002090600202016040518060400160405290816000820160009054906101000a900473ffffffffffffffffffffffffffffffffffffffff1673ffffffffffffffffffffffffffffffffffffffff1673ffffffffffffffffffffffffffffffffffffffff16815260200160018201548152505081526020019060010190612d77565b5050505081525050905060005b816020015151811015612fd657600082602001518281518110612e3557fe5b60200260200101519050600084826020015102905060008054906101000a900473ffffffffffffffffffffffffffffffffffffffff1673ffffffffffffffffffffffffffffffffffffffff16826000015173ffffffffffffffffffffffffffffffffffffffff161415612f575760008054906101000a900473ffffffffffffffffffffffffffffffffffffffff1673ffffffffffffffffffffffffffffffffffffffff166323b872dd3330846040518463ffffffff1660e01b8152600401612eff939291906153ed565b602060405180830381600087803b158015612f1957600080fd5b505af1158015612f2d573d6000803e3d6000fd5b505050506040513d601f19601f82011682018060405250810190612f519190614a39565b50612fc9565b816000015173ffffffffffffffffffffffffffffffffffffffff16639dc29fac33836040518363ffffffff1660e01b8152600401612f96929190615424565b600060405180830381600087803b158015612fb057600080fd5b505af1158015612fc4573d6000803e3d6000fd5b505050505b5050600181019050612e16565b50505050565b6000600460008373ffffffffffffffffffffffffffffffffffffffff1673ffffffffffffffffffffffffffffffffffffffff168152602001908152602001600020549050919050565b600061306783836040518060400160405280601e81526020017f536166654d6174683a207375627472616374696f6e206f766572666c6f770000815250613ae6565b905092915050565b60006130b183836040518060400160405280601a81526020017f536166654d6174683a206469766973696f6e206279207a65726f000000000000815250613ba6565b905092915050565b6000808314156130cc5760009050613139565b60008284029050828482816130dd57fe5b0414613134576040517f08c379a0000000000000000000000000000000000000000000000000000000008152600401808060200182810382526021815260200180615ad26021913960400191505060405180910390fd5b809150505b92915050565b60008060008054906101000a900473ffffffffffffffffffffffffffffffffffffffff1673ffffffffffffffffffffffffffffffffffffffff1663313ce5676040518163ffffffff1660e01b815260040160206040518083038186803b1580156131a857600080fd5b505afa1580156131bc573d6000803e3d6000fd5b505050506040513d601f19601f820116820180604052508101906131e09190614ab4565b60ff169050600583116131fc5780600a0a600102915050613237565b600883116132135780600a0a603202915050613237565b600b831161322b5780600a0a6101f402915050613237565b80600a0a6109c4029150505b919050565b60008060008054906101000a900473ffffffffffffffffffffffffffffffffffffffff1673ffffffffffffffffffffffffffffffffffffffff1663313ce5676040518163ffffffff1660e01b815260040160206040518083038186803b1580156132a557600080fd5b505afa1580156132b9573d6000803e3d6000fd5b505050506040513d601f19601f820116820180604052508101906132dd9190614ab4565b60ff16905060008060009054906101000a900473ffffffffffffffffffffffffffffffffffffffff1673ffffffffffffffffffffffffffffffffffffffff166318160ddd6040518163ffffffff1660e01b815260040160206040518083038186803b15801561334b57600080fd5b505afa15801561335f573d6000803e3d6000fd5b505050506040513d601f19601f820116820180604052508101906133839190614a8b565b905081600a0a620186a0028110156133a05760019250505061349a565b81600a0a6207a120028110156133bb5760059250505061349a565b81600a0a620f4240028110156133d657600a9250505061349a565b81600a0a624c4b40028110156133f15760329250505061349a565b81600a0a629896800281101561340c5760649250505061349a565b81600a0a6302faf08002811015613429576101f49250505061349a565b81600a0a6305f5e10002811015613446576103e89250505061349a565b81600a0a631dcd650002811015613463576113889250505061349a565b81600a0a633b9aca0002811015613480576127109250505061349a565b6134956127108261306f90919063ffffffff16565b925050505b90565b6134a56144e1565b60006134b033612fdc565b116134f0576040517f08c379a00000000000000000000000000000000000000000000000000000000081526004016134e790615778565b60405180910390fd5b6000600360003373ffffffffffffffffffffffffffffffffffffffff1673ffffffffffffffffffffffffffffffffffffffff168152602001908152602001600020805480602002602001604051908101604052809291908181526020016000905b828210156135ba57838290600052602060002090600202016040518060400160405290816000820160009054906101000a900460ff16600781111561359257fe5b600781111561359d57fe5b815260200160018201548152505081526020019060010190613551565b50505050905060008060009054906101000a900473ffffffffffffffffffffffffffffffffffffffff1673ffffffffffffffffffffffffffffffffffffffff166370a08231336040518263ffffffff1660e01b815260040161361c91906153d2565b60206040518083038186803b15801561363457600080fd5b505afa158015613648573d6000803e3d6000fd5b505050506040513d601f19601f8201168201806040525081019061366c9190614a8b565b905060005b8451811015613ac757600085828151811061368857fe5b6020026020010151905060006136a96006544261302590919063ffffffff16565b905080826060015110156136f2576040517f08c379a00000000000000000000000000000000000000000000000000000000081526004016136e990615618565b60405180910390fd5b6136fb33612fdc565b82606001511015613741576040517f08c379a000000000000000000000000000000000000000000000000000000000815260040161373890615538565b60405180910390fd5b4282606001511115613788576040517f08c379a000000000000000000000000000000000000000000000000000000000815260040161377f906155d8565b60405180910390fd5b60008311156137f3578660018403815181106137a057fe5b602002602001015160600151826060015110156137f2576040517f08c379a00000000000000000000000000000000000000000000000000000000081526004016137e9906155f8565b60405180910390fd5b5b6000600181111561380057fe5b8260000151600181111561381057fe5b141561392c576138238260200151613c6c565b85511015613866576040517f08c379a000000000000000000000000000000000000000000000000000000000815260040161385d90615738565b60405180910390fd5b60006138758360200151613dc2565b9050600061388282611a7a565b9050808610156138c7576040517f08c379a00000000000000000000000000000000000000000000000000000000081526004016138be906154b8565b60405180910390fd5b6138da818761302590919063ffffffff16565b955060006040518060400160405280866020015160078111156138f957fe5b815260200186606001518152509050808886604001518151811061391957fe5b6020026020010181905250505050613ab8565b60018081111561393857fe5b8260000151600181111561394857fe5b1415613ab75760008583604001518151811061396057fe5b602002602001015190506000600781111561397757fe5b8160000151600781111561398757fe5b14156139c8576040517f08c379a00000000000000000000000000000000000000000000000000000000081526004016139bf90615758565b60405180910390fd5b60006139e58260200151856060015161302590919063ffffffff16565b905060006139f6836000015161401a565b905080821015613a3b576040517f08c379a0000000000000000000000000000000000000000000000000000000008152600401613a32906156b8565b60405180910390fd5b6000604051806040016040528060006007811115613a5557fe5b8152602001600081525090508089876040015181518110613a7257fe5b60200260200101819052506000613a8c8560000151614188565b90506000613a9982611a7a565b9050613aae818b6143e390919063ffffffff16565b99505050505050505b5b50508080600101915050613671565b5060405180604001604052808381526020018281525092505050919050565b6000838311158290613b93576040517f08c379a00000000000000000000000000000000000000000000000000000000081526004018080602001828103825283818151815260200191508051906020019080838360005b83811015613b58578082015181840152602081019050613b3d565b50505050905090810190601f168015613b855780820380516001836020036101000a031916815260200191505b509250505060405180910390fd5b5060008385039050809150509392505050565b60008083118290613c52576040517f08c379a00000000000000000000000000000000000000000000000000000000081526004018080602001828103825283818151815260200191508051906020019080838360005b83811015613c17578082015181840152602081019050613bfc565b50505050905090810190601f168015613c445780820380516001836020036101000a031916815260200191505b509250505060405180910390fd5b506000838581613c5e57fe5b049050809150509392505050565b600060016007811115613c7b57fe5b826007811115613c8757fe5b1480613ca9575060026007811115613c9b57fe5b826007811115613ca757fe5b145b15613cb75760059050613dbd565b60036007811115613cc457fe5b826007811115613cd057fe5b1480613cf2575060046007811115613ce457fe5b826007811115613cf057fe5b145b15613d005760089050613dbd565b60056007811115613d0d57fe5b826007811115613d1957fe5b1415613d2857600b9050613dbd565b60066007811115613d3557fe5b826007811115613d4157fe5b1415613d5057600e9050613dbd565b600780811115613d5c57fe5b826007811115613d6857fe5b1415613d775760119050613dbd565b6000613db8576040517f08c379a0000000000000000000000000000000000000000000000000000000008152600401613daf90615578565b60405180910390fd5b606390505b919050565b60008060008054906101000a900473ffffffffffffffffffffffffffffffffffffffff1673ffffffffffffffffffffffffffffffffffffffff1663313ce5676040518163ffffffff1660e01b815260040160206040518083038186803b158015613e2b57600080fd5b505afa158015613e3f573d6000803e3d6000fd5b505050506040513d601f19601f82011682018060405250810190613e639190614ab4565b60ff16905060016007811115613e7557fe5b836007811115613e8157fe5b1415613ea057606481600a0a60010281613e9757fe5b04915050614015565b60026007811115613ead57fe5b836007811115613eb957fe5b1415613ed857606481600a0a600a0281613ecf57fe5b04915050614015565b60036007811115613ee557fe5b836007811115613ef157fe5b1415613f1057606481600a0a60280281613f0757fe5b04915050614015565b60046007811115613f1d57fe5b836007811115613f2957fe5b1415613f3e5780600a0a600102915050614015565b60056007811115613f4b57fe5b836007811115613f5757fe5b1415613f6c5780600a0a600402915050614015565b60066007811115613f7957fe5b836007811115613f8557fe5b1415613f9a5780600a0a600a02915050614015565b600780811115613fa657fe5b836007811115613fb257fe5b1415613fc75780600a0a603202915050614015565b6000614008576040517f08c379a0000000000000000000000000000000000000000000000000000000008152600401613fff90615578565b60405180910390fd5b80600a0a620186a0029150505b919050565b60006001600781111561402957fe5b82600781111561403557fe5b141561404457603c9050614183565b6002600781111561405157fe5b82600781111561405d57fe5b141561406d5761012c9050614183565b6003600781111561407a57fe5b82600781111561408657fe5b141561409657610e109050614183565b600460078111156140a357fe5b8260078111156140af57fe5b14156140bf576138409050614183565b600560078111156140cc57fe5b8260078111156140d857fe5b14156140e8576170809050614183565b600660078111156140f557fe5b82600781111561410157fe5b141561411257620151809050614183565b60078081111561411e57fe5b82600781111561412a57fe5b141561413b576203f4809050614183565b600061417c576040517f08c379a000000000000000000000000000000000000000000000000000000000815260040161417390615578565b60405180910390fd5b6298967f90505b919050565b60008060008054906101000a900473ffffffffffffffffffffffffffffffffffffffff1673ffffffffffffffffffffffffffffffffffffffff1663313ce5676040518163ffffffff1660e01b815260040160206040518083038186803b1580156141f157600080fd5b505afa158015614205573d6000803e3d6000fd5b505050506040513d601f19601f820116820180604052508101906142299190614ab4565b60ff1690506001600781111561423b57fe5b83600781111561424757fe5b141561426657606481600a0a6002028161425d57fe5b049150506143de565b6002600781111561427357fe5b83600781111561427f57fe5b141561429e57606481600a0a6010028161429557fe5b049150506143de565b600360078111156142ab57fe5b8360078111156142b757fe5b14156142d657606481600a0a605002816142cd57fe5b049150506143de565b600460078111156142e357fe5b8360078111156142ef57fe5b141561430e57606481600a0a60b4028161430557fe5b049150506143de565b6005600781111561431b57fe5b83600781111561432757fe5b141561433c5780600a0a6008029150506143de565b6006600781111561434957fe5b83600781111561435557fe5b141561436a5780600a0a6010029150506143de565b60078081111561437657fe5b83600781111561438257fe5b14156143975780600a0a6050029150506143de565b60006143d8576040517f08c379a00000000000000000000000000000000000000000000000000000000081526004016143cf90615578565b60405180910390fd5b60009150505b919050565b600080828401905083811015614461576040517f08c379a000000000000000000000000000000000000000000000000000000000815260040180806020018281038252601b8152602001807f536166654d6174683a206164646974696f6e206f766572666c6f77000000000081525060200191505060405180910390fd5b8091505092915050565b6040518060400160405280600073ffffffffffffffffffffffffffffffffffffffff168152602001606081525090565b6040518060400160405280600073ffffffffffffffffffffffffffffffffffffffff168152602001600073ffffffffffffffffffffffffffffffffffffffff1681525090565b604051806040016040528060608152602001600081525090565b600061450e61450984615843565b615812565b9050808382526020820190508285604086028201111561452d57600080fd5b60005b8581101561455d57816145438882614726565b845260208401935060408301925050600181019050614530565b5050509392505050565b600061457a6145758461586f565b615812565b9050808382526020820190508285608086028201111561459957600080fd5b60005b858110156145c957816145af8882614772565b84526020840193506080830192505060018101905061459c565b5050509392505050565b60006145e66145e18461589b565b615812565b9050808382526020820190508285608086028201111561460557600080fd5b60005b85811015614635578161461b88826147e6565b845260208401935060808301925050600181019050614608565b5050509392505050565b60008135905061464e81615a3e565b92915050565b60008135905061466381615a55565b92915050565b600082601f83011261467a57600080fd5b813561468a8482602086016144fb565b91505092915050565b600082601f8301126146a457600080fd5b81356146b4848260208601614567565b91505092915050565b600082601f8301126146ce57600080fd5b81356146de8482602086016145d3565b91505092915050565b6000815190506146f681615a6c565b92915050565b60008135905061470b81615a83565b92915050565b60008135905061472081615a93565b92915050565b60006040828403121561473857600080fd5b6147426040615812565b905060006147528482850161463f565b60008301525060206147668482850161485a565b60208301525092915050565b60006080828403121561478457600080fd5b61478e6080615812565b9050600061479e848285016146fc565b60008301525060206147b284828501614711565b60208301525060406147c68482850161485a565b60408301525060606147da8482850161485a565b60608301525092915050565b6000608082840312156147f857600080fd5b6148026080615812565b905060006148128482850161463f565b60008301525060206148268482850161485a565b602083015250604061483a8482850161485a565b604083015250606061484e84828501614711565b60608301525092915050565b60008135905061486981615aa3565b92915050565b60008151905061487e81615aa3565b92915050565b60008151905061489381615aba565b92915050565b6000602082840312156148ab57600080fd5b60006148b98482850161463f565b91505092915050565b6000602082840312156148d457600080fd5b60006148e284828501614654565b91505092915050565b600080604083850312156148fe57600080fd5b600061490c8582860161463f565b925050602061491d8582860161463f565b9150509250929050565b6000806040838503121561493a57600080fd5b60006149488582860161463f565b925050602083013567ffffffffffffffff81111561496557600080fd5b61497185828601614669565b9150509250929050565b6000806040838503121561498e57600080fd5b600061499c8582860161463f565b92505060206149ad8582860161485a565b9150509250929050565b6000602082840312156149c957600080fd5b600082013567ffffffffffffffff8111156149e357600080fd5b6149ef84828501614693565b91505092915050565b600060208284031215614a0a57600080fd5b600082013567ffffffffffffffff811115614a2457600080fd5b614a30848285016146bd565b91505092915050565b600060208284031215614a4b57600080fd5b6000614a59848285016146e7565b91505092915050565b600060208284031215614a7457600080fd5b6000614a828482850161485a565b91505092915050565b600060208284031215614a9d57600080fd5b6000614aab8482850161486f565b91505092915050565b600060208284031215614ac657600080fd5b6000614ad484828501614884565b91505092915050565b6000614ae9838361527d565b60408301905092915050565b6000614b018383615355565b60408301905092915050565b614b16816159e0565b82525050565b614b2581615966565b82525050565b614b3481615966565b82525050565b6000614b45826158e7565b614b4f8185615917565b9350614b5a836158c7565b8060005b83811015614b8b578151614b728882614add565b9750614b7d836158fd565b925050600181019050614b5e565b5085935050505092915050565b6000614ba3826158f2565b614bad8185615928565b9350614bb8836158d7565b8060005b83811015614be9578151614bd08882614af5565b9750614bdb8361590a565b925050600181019050614bbc565b5085935050505092915050565b6000614c01826158f2565b614c0b8185615939565b9350614c16836158d7565b8060005b83811015614c47578151614c2e8882614af5565b9750614c398361590a565b925050600181019050614c1a565b5085935050505092915050565b614c5d816159f2565b82525050565b6000614c70601583615955565b91507f5245434950455f414c52454144595f45584953545300000000000000000000006000830152602082019050919050565b6000614cb0601283615955565b91507f494e53554646494349454e545f46554e445300000000000000000000000000006000830152602082019050919050565b6000614cf0600b83615955565b91507f4641524d5f4558495354530000000000000000000000000000000000000000006000830152602082019050919050565b6000614d30601583615955565b91507f5245434950455f444f45535f4e4f545f455849535400000000000000000000006000830152602082019050919050565b6000614d70601783615955565b91507f5245534f555243455f414c52454144595f4558495354530000000000000000006000830152602082019050919050565b6000614db0600d83615955565b91507f4556454e545f494e5f50415354000000000000000000000000000000000000006000830152602082019050919050565b6000614df0600f83615955565b91507f4e4f5f5245574152445f524541445900000000000000000000000000000000006000830152602082019050919050565b6000614e30600d83615955565b91507f494e56414c49445f4652554954000000000000000000000000000000000000006000830152602082019050919050565b6000614e70600983615955565b91507f4d41585f4c4556454c00000000000000000000000000000000000000000000006000830152602082019050919050565b6000614eb0600f83615955565b91507f444f4e4154494f4e5f4641494c454400000000000000000000000000000000006000830152602082019050919050565b6000614ef0600f83615955565b91507f4556454e545f494e5f46555455524500000000000000000000000000000000006000830152602082019050919050565b6000614f30600d83615955565b91507f494e56414c49445f4f52444552000000000000000000000000000000000000006000830152602082019050919050565b6000614f70600d83615955565b91507f4556454e545f45585049524544000000000000000000000000000000000000006000830152602082019050919050565b6000614fb0601083615955565b91507f4e4f5f5245574152445f414d4f554e54000000000000000000000000000000006000830152602082019050919050565b6000614ff0601583615955565b91507f494e53554646494349454e545f444f4e4154494f4e00000000000000000000006000830152602082019050919050565b6000615030601683615955565b91507f53554e464c4f5745525f544f4b454e5f494e5f555345000000000000000000006000830152602082019050919050565b600061507060008361594a565b9150600082019050919050565b600061508a601783615955565b91507f5245534f555243455f444f45535f4e4f545f45584953540000000000000000006000830152602082019050919050565b60006150ca600883615955565b91507f4e4f545f524950450000000000000000000000000000000000000000000000006000830152602082019050919050565b600061510a600f83615955565b91507f494e56414c49445f4348415249545900000000000000000000000000000000006000830152602082019050919050565b600061514a601283615955565b91507f4d4947524154494f4e5f434f4d504c45544500000000000000000000000000006000830152602082019050919050565b600061518a601783615955565b91507f4d4154455249414c5f444f45535f4e4f545f45584953540000000000000000006000830152602082019050919050565b60006151ca600d83615955565b91507f494e56414c49445f4c4556454c000000000000000000000000000000000000006000830152602082019050919050565b600061520a600883615955565b91507f4e4f5f46525549540000000000000000000000000000000000000000000000006000830152602082019050919050565b600061524a600783615955565b91507f4e4f5f4641524d000000000000000000000000000000000000000000000000006000830152602082019050919050565b6040820160008201516152936000850182614b1c565b5060208201516152a66020850182615384565b50505050565b600060408301600083015184820360008601526152c98282614b98565b91505060208301516152de6020860182615384565b508091505092915050565b60006040830160008301516153016000860182614b1c565b50602083015184820360208601526153198282614b3a565b9150508091505092915050565b60408201600082015161533c6000850182614b1c565b50602082015161534f6020850182614b1c565b50505050565b60408201600082015161536b6000850182614c54565b50602082015161537e6020850182615384565b50505050565b61538d816159c9565b82525050565b61539c816159c9565b82525050565b60006153ad82615063565b9150819050919050565b60006020820190506153cc6000830184614b2b565b92915050565b60006020820190506153e76000830184614b0d565b92915050565b60006060820190506154026000830186614b0d565b61540f6020830185614b0d565b61541c6040830184615393565b949350505050565b60006040820190506154396000830185614b0d565b6154466020830184615393565b9392505050565b60006040820190506154626000830185614b2b565b61546f6020830184615393565b9392505050565b600060208201905081810360008301526154908184614bf6565b905092915050565b600060208201905081810360008301526154b181614c63565b9050919050565b600060208201905081810360008301526154d181614ca3565b9050919050565b600060208201905081810360008301526154f181614ce3565b9050919050565b6000602082019050818103600083015261551181614d23565b9050919050565b6000602082019050818103600083015261553181614d63565b9050919050565b6000602082019050818103600083015261555181614da3565b9050919050565b6000602082019050818103600083015261557181614de3565b9050919050565b6000602082019050818103600083015261559181614e23565b9050919050565b600060208201905081810360008301526155b181614e63565b9050919050565b600060208201905081810360008301526155d181614ea3565b9050919050565b600060208201905081810360008301526155f181614ee3565b9050919050565b6000602082019050818103600083015261561181614f23565b9050919050565b6000602082019050818103600083015261563181614f63565b9050919050565b6000602082019050818103600083015261565181614fa3565b9050919050565b6000602082019050818103600083015261567181614fe3565b9050919050565b6000602082019050818103600083015261569181615023565b9050919050565b600060208201905081810360008301526156b18161507d565b9050919050565b600060208201905081810360008301526156d1816150bd565b9050919050565b600060208201905081810360008301526156f1816150fd565b9050919050565b600060208201905081810360008301526157118161513d565b9050919050565b600060208201905081810360008301526157318161517d565b9050919050565b60006020820190508181036000830152615751816151bd565b9050919050565b60006020820190508181036000830152615771816151fd565b9050919050565b600060208201905081810360008301526157918161523d565b9050919050565b600060208201905081810360008301526157b281846152ac565b905092915050565b600060208201905081810360008301526157d481846152e9565b905092915050565b60006040820190506157f16000830184615326565b92915050565b600060208201905061580c6000830184615393565b92915050565b6000604051905081810181811067ffffffffffffffff8211171561583957615838615a28565b5b8060405250919050565b600067ffffffffffffffff82111561585e5761585d615a28565b5b602082029050602081019050919050565b600067ffffffffffffffff82111561588a57615889615a28565b5b602082029050602081019050919050565b600067ffffffffffffffff8211156158b6576158b5615a28565b5b602082029050602081019050919050565b6000819050602082019050919050565b6000819050602082019050919050565b600081519050919050565b600081519050919050565b6000602082019050919050565b6000602082019050919050565b600082825260208201905092915050565b600082825260208201905092915050565b600082825260208201905092915050565b600081905092915050565b600082825260208201905092915050565b6000615971826159a9565b9050919050565b6000615983826159a9565b9050919050565b60008115159050919050565b60008190506159a482615a2a565b919050565b600073ffffffffffffffffffffffffffffffffffffffff82169050919050565b6000819050919050565b600060ff82169050919050565b60006159eb82615a04565b9050919050565b60006159fd82615996565b9050919050565b6000615a0f82615a16565b9050919050565b6000615a21826159a9565b9050919050565bfe5b60088110615a3b57615a3a615a28565b5b50565b615a4781615966565b8114615a5257600080fd5b50565b615a5e81615978565b8114615a6957600080fd5b50565b615a758161598a565b8114615a8057600080fd5b50565b60028110615a9057600080fd5b50565b60088110615aa057600080fd5b50565b615aac816159c9565b8114615ab757600080fd5b50565b615ac3816159d3565b8114615ace57600080fd5b5056fe536166654d6174683a206d756c7469706c69636174696f6e206f766572666c6f77a2646970667358221220a06c2f41d77498834deab8e66d22770cfc6f762b4269ec414046f3b6fb20b4ca64736f6c63430007060033",
  "immutableReferences": {},
  "source": "pragma solidity >=0.6.0 <0.8.0;\r\npragma experimental ABIEncoderV2;\r\n\r\nimport \"@openzeppelin/contracts/math/Math.sol\";\r\n//import \"https://github.com/OpenZeppelin/openzeppelin-contracts/blob/v3.3.0/contracts/math/Math.sol\";\r\n\r\nimport \"./Token.sol\";\r\n\r\n// Items, NFTs or resources\r\ninterface ERCItem {\r\n    function mint(address account, uint256 amount) external;\r\n    function burn(address account, uint256 amount) external;\r\n    function balanceOf(address acount) external returns (uint256);\r\n    \r\n    // Used by resources - items/NFTs won't have this will this be an issue?\r\n    function stake(address account, uint256 amount) external;\r\n    function getStaked(address account) external returns(uint256);\r\n}\r\n\r\ncontract FarmV2 {\r\n    using SafeMath for uint256;\r\n\r\n    TokenV2 private token;\r\n\r\n    struct Square {\r\n        Fruit fruit;\r\n        uint createdAt;\r\n    }\r\n\r\n    struct V1Farm {\r\n        address account;\r\n        uint tokenAmount;\r\n        uint size;\r\n        Fruit fruit;\r\n    }\r\n\r\n    uint farmCount = 0;\r\n    bool isMigrating = true;\r\n    mapping(address => Square[]) fields;\r\n    mapping(address => uint) syncedAt;\r\n    mapping(address => uint) rewardsOpenedAt;\r\n\r\n    constructor(TokenV2 _token) public {\r\n        token = _token;\r\n    }\r\n    \r\n    // Need to upload these in batches so separate from constructor\r\n    function uploadV1Farms(V1Farm[] memory farms) public {\r\n        require(isMigrating, \"MIGRATION_COMPLETE\");\r\n\r\n        uint decimals = token.decimals();\r\n        \r\n        // Carry over farms from V1\r\n        for (uint i=0; i < farms.length; i += 1) {\r\n            V1Farm memory farm = farms[i];\r\n\r\n            Square[] storage land = fields[farm.account];\r\n            \r\n            // Treat them with a ripe plant\r\n            Square memory plant = Square({\r\n                fruit: farm.fruit,\r\n                createdAt: 0\r\n            });\r\n            \r\n            for (uint j=0; j < farm.size; j += 1) {\r\n                land.push(plant);\r\n            }\r\n\r\n            syncedAt[farm.account] = block.timestamp;\r\n            rewardsOpenedAt[farm.account] = block.timestamp;\r\n            \r\n            token.mint(farm.account, farm.tokenAmount * (10**decimals));\r\n            \r\n            farmCount += 1;\r\n        }\r\n    }\r\n    \r\n    function finishMigration() public {\r\n        isMigrating = false;\r\n    }\r\n    \r\n    event FarmCreated(address indexed _address);\r\n    event FarmSynced(address indexed _address);\r\n    event ItemCrafted(address indexed _address, address _item);\r\n\r\n    // Function to receive Ether. msg.data must be empty\r\n    receive() external payable {}\r\n\r\n    function createFarm(address payable _charity) public payable {\r\n        require(syncedAt[msg.sender] == 0, \"FARM_EXISTS\");\r\n\r\n        uint decimals = token.decimals();\r\n\r\n        require(\r\n            // Donation must be at least $0.10 to play\r\n            msg.value >= 1 * 10**(decimals - 1),\r\n            \"INSUFFICIENT_DONATION\"\r\n        );\r\n\r\n        require(\r\n            // The Water Project - double check\r\n            _charity == address(0x060697E9d4EEa886EbeCe57A974Facd53A40865B)\r\n            // Heifer\r\n            || _charity == address(0xD3F81260a44A1df7A7269CF66Abd9c7e4f8CdcD1)\r\n            // Cool Earth\r\n            || _charity == address(0x3c8cB169281196737c493AfFA8F49a9d823bB9c5),\r\n            \"INVALID_CHARITY\"\r\n        );\r\n\r\n\r\n        Square[] storage land = fields[msg.sender];\r\n        Square memory empty = Square({\r\n            fruit: Fruit.None,\r\n            createdAt: 0\r\n        });\r\n        Square memory sunflower = Square({\r\n            fruit: Fruit.Sunflower,\r\n            createdAt: 0\r\n        });\r\n\r\n        // Each farmer starts with 5 fields & 3 Sunflowers\r\n        land.push(empty);\r\n        land.push(sunflower);\r\n        land.push(sunflower);\r\n        land.push(sunflower);\r\n        land.push(empty);\r\n\r\n        syncedAt[msg.sender] = block.timestamp;\r\n        // They must wait X days before opening their first reward\r\n        rewardsOpenedAt[msg.sender] = block.timestamp;\r\n\r\n        (bool sent, bytes memory data) = _charity.call{value: msg.value}(\"\");\r\n        require(sent, \"DONATION_FAILED\");\r\n\r\n        farmCount += 1;\r\n            \r\n        //Emit an event\r\n        emit FarmCreated(msg.sender);\r\n    }\r\n    \r\n    function lastSyncedAt(address owner) private view returns(uint) {\r\n        return syncedAt[owner];\r\n    }\r\n\r\n\r\n    function getLand(address owner) public view returns (Square[] memory) {\r\n        return fields[owner];\r\n    }\r\n\r\n    enum Action { Plant, Harvest }\r\n    enum Fruit { None, Sunflower, Potato, Pumpkin, Beetroot, Cauliflower, Parsnip, Radish }\r\n\r\n    struct Event { \r\n        Action action;\r\n        Fruit fruit;\r\n        uint landIndex;\r\n        uint createdAt;\r\n    }\r\n\r\n    struct Farm {\r\n        Square[] land;\r\n        uint balance;\r\n    }\r\n\r\n    function getHarvestSeconds(Fruit _fruit) private pure returns (uint) {\r\n        if (_fruit == Fruit.Sunflower) {\r\n            // 1 minute\r\n            return 1 * 60;\r\n        } else if (_fruit == Fruit.Potato) {\r\n            // 5 minutes\r\n            return 5 * 60;\r\n        } else if (_fruit == Fruit.Pumpkin) {\r\n            // 1 hour\r\n            return 1  * 60 * 60;\r\n        } else if (_fruit == Fruit.Beetroot) {\r\n            // 4 hours\r\n            return 4 * 60 * 60;\r\n        } else if (_fruit == Fruit.Cauliflower) {\r\n            // 8 hours\r\n            return 8 * 60 * 60;\r\n        } else if (_fruit == Fruit.Parsnip) {\r\n            // 1 day\r\n            return 24 * 60 * 60;\r\n        } else if (_fruit == Fruit.Radish) {\r\n            // 3 days\r\n            return 3 * 24 * 60 * 60;\r\n        }\r\n\r\n        require(false, \"INVALID_FRUIT\");\r\n        return 9999999;\r\n    }\r\n\r\n    function getSeedPrice(Fruit _fruit) private view returns (uint price) {\r\n        uint decimals = token.decimals();\r\n\r\n        if (_fruit == Fruit.Sunflower) {\r\n            //$0.01\r\n            return 1 * 10**decimals / 100;\r\n        } else if (_fruit == Fruit.Potato) {\r\n            // $0.10\r\n            return 10 * 10**decimals / 100;\r\n        } else if (_fruit == Fruit.Pumpkin) {\r\n            // $0.40\r\n            return 40 * 10**decimals / 100;\r\n        } else if (_fruit == Fruit.Beetroot) {\r\n            // $1\r\n            return 1 * 10**decimals;\r\n        } else if (_fruit == Fruit.Cauliflower) {\r\n            // $4\r\n            return 4 * 10**decimals;\r\n        } else if (_fruit == Fruit.Parsnip) {\r\n            // $10\r\n            return 10 * 10**decimals;\r\n        } else if (_fruit == Fruit.Radish) {\r\n            // $50\r\n            return 50 * 10**decimals;\r\n        }\r\n\r\n        require(false, \"INVALID_FRUIT\");\r\n\r\n        return 100000 * 10**decimals;\r\n    }\r\n\r\n    function getFruitPrice(Fruit _fruit) private view returns (uint price) {\r\n        uint decimals = token.decimals();\r\n\r\n        if (_fruit == Fruit.Sunflower) {\r\n            // $0.02\r\n            return 2 * 10**decimals / 100;\r\n        } else if (_fruit == Fruit.Potato) {\r\n            // $0.16\r\n            return 16 * 10**decimals / 100;\r\n        } else if (_fruit == Fruit.Pumpkin) {\r\n            // $0.80\r\n            return 80 * 10**decimals / 100;\r\n        } else if (_fruit == Fruit.Beetroot) {\r\n            // $1.8\r\n            return 180 * 10**decimals / 100;\r\n        } else if (_fruit == Fruit.Cauliflower) {\r\n            // $8\r\n            return 8 * 10**decimals;\r\n        } else if (_fruit == Fruit.Parsnip) {\r\n            // $16\r\n            return 16 * 10**decimals;\r\n        } else if (_fruit == Fruit.Radish) {\r\n            // $80\r\n            return 80 * 10**decimals;\r\n        }\r\n\r\n        require(false, \"INVALID_FRUIT\");\r\n\r\n        return 0;\r\n    }\r\n    \r\n    function requiredLandSize(Fruit _fruit) private pure returns (uint size) {\r\n        if (_fruit == Fruit.Sunflower || _fruit == Fruit.Potato) {\r\n            return 5;\r\n        } else if (_fruit == Fruit.Pumpkin || _fruit == Fruit.Beetroot) {\r\n            return 8;\r\n        } else if (_fruit == Fruit.Cauliflower) {\r\n            return 11;\r\n        } else if (_fruit == Fruit.Parsnip) {\r\n            return 14;\r\n        } else if (_fruit == Fruit.Radish) {\r\n            return 17;\r\n        }\r\n\r\n        require(false, \"INVALID_FRUIT\");\r\n\r\n        return 99;\r\n    }\r\n    \r\n       \r\n    function getLandPrice(uint landSize) private view returns (uint price) {\r\n        uint decimals = token.decimals();\r\n        if (landSize <= 5) {\r\n            // $1\r\n            return 1 * 10**decimals;\r\n        } else if (landSize <= 8) {\r\n            // 50\r\n            return 50 * 10**decimals;\r\n        } else if (landSize <= 11) {\r\n            // $500\r\n            return 500 * 10**decimals;\r\n        }\r\n        \r\n        // $2500\r\n        return 2500 * 10**decimals;\r\n    }\r\n\r\n    modifier hasFarm {\r\n        require(lastSyncedAt(msg.sender) > 0, \"NO_FARM\");\r\n        _;\r\n    }\r\n     \r\n    uint private THIRTY_MINUTES = 30 * 60;\r\n\r\n    function buildFarm(Event[] memory _events) private view hasFarm returns (Farm memory currentFarm) {\r\n        Square[] memory land = fields[msg.sender];\r\n        uint balance = token.balanceOf(msg.sender);\r\n        \r\n        for (uint index = 0; index < _events.length; index++) {\r\n            Event memory farmEvent = _events[index];\r\n\r\n            uint thirtyMinutesAgo = block.timestamp.sub(THIRTY_MINUTES); \r\n            require(farmEvent.createdAt >= thirtyMinutesAgo, \"EVENT_EXPIRED\");\r\n            require(farmEvent.createdAt >= lastSyncedAt(msg.sender), \"EVENT_IN_PAST\");\r\n            require(farmEvent.createdAt <= block.timestamp, \"EVENT_IN_FUTURE\");\r\n\r\n            if (index > 0) {\r\n                require(farmEvent.createdAt >= _events[index - 1].createdAt, \"INVALID_ORDER\");\r\n            }\r\n\r\n            if (farmEvent.action == Action.Plant) {\r\n                require(land.length >= requiredLandSize(farmEvent.fruit), \"INVALID_LEVEL\");\r\n                \r\n                uint price = getSeedPrice(farmEvent.fruit);\r\n                uint fmcPrice = getMarketPrice(price);\r\n                require(balance >= fmcPrice, \"INSUFFICIENT_FUNDS\");\r\n\r\n                balance = balance.sub(fmcPrice);\r\n\r\n                Square memory plantedSeed = Square({\r\n                    fruit: farmEvent.fruit,\r\n                    createdAt: farmEvent.createdAt\r\n                });\r\n                land[farmEvent.landIndex] = plantedSeed;\r\n            } else if (farmEvent.action == Action.Harvest) {\r\n                Square memory square = land[farmEvent.landIndex];\r\n                require(square.fruit != Fruit.None, \"NO_FRUIT\");\r\n\r\n                uint duration = farmEvent.createdAt.sub(square.createdAt);\r\n                uint secondsToHarvest = getHarvestSeconds(square.fruit);\r\n                require(duration >= secondsToHarvest, \"NOT_RIPE\");\r\n\r\n                // Clear the land\r\n                Square memory emptyLand = Square({\r\n                    fruit: Fruit.None,\r\n                    createdAt: 0\r\n                });\r\n                land[farmEvent.landIndex] = emptyLand;\r\n\r\n                uint price = getFruitPrice(square.fruit);\r\n                uint fmcPrice = getMarketPrice(price);\r\n\r\n                balance = balance.add(fmcPrice);\r\n            }\r\n        }\r\n\r\n        return Farm({\r\n            land: land,\r\n            balance: balance\r\n        });\r\n    }\r\n\r\n\r\n    function sync(Event[] memory _events) public hasFarm returns (Farm memory) {\r\n        Farm memory farm = buildFarm(_events);\r\n\r\n        // Update the land\r\n        Square[] storage land = fields[msg.sender];\r\n        for (uint i=0; i < farm.land.length; i += 1) {\r\n            land[i] = farm.land[i];\r\n        }\r\n        \r\n        syncedAt[msg.sender] = block.timestamp;\r\n        \r\n        uint balance = token.balanceOf(msg.sender);\r\n        // Update the balance - mint or burn\r\n        if (farm.balance > balance) {\r\n            uint profit = farm.balance.sub(balance);\r\n            token.mint(msg.sender, profit);\r\n        } else if (farm.balance < balance) {\r\n            uint loss = balance.sub(farm.balance);\r\n            token.burn(msg.sender, loss);\r\n        }\r\n\r\n        emit FarmSynced(msg.sender);\r\n\r\n        return farm;\r\n    }\r\n\r\n    function levelUp() public hasFarm {\r\n        require(fields[msg.sender].length <= 17, \"MAX_LEVEL\");\r\n\r\n        \r\n        Square[] storage land = fields[msg.sender];\r\n\r\n        uint price = getLandPrice(land.length);\r\n        uint fmcPrice = getMarketPrice(price);\r\n        uint balance = token.balanceOf(msg.sender);\r\n\r\n        require(balance >= fmcPrice, \"INSUFFICIENT_FUNDS\");\r\n        \r\n        // Store rewards in the Farm Contract to redistribute\r\n        token.transferFrom(msg.sender, address(this), fmcPrice);\r\n        \r\n        // Add 3 sunflower fields in the new fields\r\n        Square memory sunflower = Square({\r\n            fruit: Fruit.Sunflower,\r\n            // Make them immediately harvestable in case they spent all their tokens\r\n            createdAt: 0\r\n        });\r\n\r\n        for (uint index = 0; index < 3; index++) {\r\n            land.push(sunflower);\r\n        }\r\n\r\n        emit FarmSynced(msg.sender);\r\n    }\r\n\r\n    // How many tokens do you get per dollar\r\n    // Algorithm is totalSupply / 10000 but we do this in gradual steps to avoid widly flucating prices between plant & harvest\r\n    function getMarketRate() private view returns (uint conversion) {\r\n        uint decimals = token.decimals();\r\n        uint totalSupply = token.totalSupply();\r\n\r\n        // Less than 100, 000 tokens\r\n        if (totalSupply < (100000 * 10**decimals)) {\r\n            // 1 Farm Dollar gets you 1 FMC token\r\n            return 1;\r\n        }\r\n\r\n        // Less than 500, 000 tokens\r\n        if (totalSupply < (500000 * 10**decimals)) {\r\n            return 5;\r\n        }\r\n\r\n        // Less than 1, 000, 000 tokens\r\n        if (totalSupply < (1000000 * 10**decimals)) {\r\n            return 10;\r\n        }\r\n\r\n        // Less than 5, 000, 000 tokens\r\n        if (totalSupply < (5000000 * 10**decimals)) {\r\n            return 50;\r\n        }\r\n\r\n        // Less than 10, 000, 000 tokens\r\n        if (totalSupply < (10000000 * 10**decimals)) {\r\n            return 100;\r\n        }\r\n\r\n        // Less than 50, 000, 000 tokens\r\n        if (totalSupply < (50000000 * 10**decimals)) {\r\n            return 500;\r\n        }\r\n\r\n        // Less than 100, 000, 000 tokens\r\n        if (totalSupply < (100000000 * 10**decimals)) {\r\n            return 1000;\r\n        }\r\n\r\n        // Less than 500, 000, 000 tokens\r\n        if (totalSupply < (500000000 * 10**decimals)) {\r\n            return 5000;\r\n        }\r\n\r\n        // Less than 1, 000, 000, 000 tokens\r\n        if (totalSupply < (1000000000 * 10**decimals)) {\r\n            return 10000;\r\n        }\r\n\r\n        // 1 Farm Dollar gets you a 0.00001 of a token - Linear growth from here\r\n        return totalSupply.div(10000);\r\n    }\r\n\r\n    function getMarketPrice(uint price) public view returns (uint conversion) {\r\n        uint marketRate = getMarketRate();\r\n\r\n        return price.div(marketRate);\r\n    }\r\n    \r\n    function getFarm(address account) public view returns (Square[] memory farm) {\r\n        return fields[account];\r\n    }\r\n    \r\n    function getFarmCount() public view returns (uint count) {\r\n        return farmCount;\r\n    }\r\n\r\n    \r\n    // Depending on the fields you have determines your cut of the rewards.\r\n    function myReward() public view hasFarm returns (uint amount) {        \r\n        uint lastOpenDate = rewardsOpenedAt[msg.sender];\r\n\r\n        // Block timestamp is seconds based\r\n        uint threeDaysAgo = block.timestamp.sub(60 * 60 * 24 * 3); \r\n\r\n        require(lastOpenDate < threeDaysAgo, \"NO_REWARD_READY\");\r\n\r\n        uint landSize = fields[msg.sender].length;\r\n        // E.g. $1000\r\n        uint farmBalance = token.balanceOf(address(this));\r\n        // E.g. $1000 / 500 farms = $2 \r\n        uint farmShare = farmBalance / farmCount;\r\n\r\n        if (landSize <= 5) {\r\n            // E.g $0.2\r\n            return farmShare.div(10);\r\n        } else if (landSize <= 8) {\r\n            // E.g $0.4\r\n            return farmShare.div(5);\r\n        } else if (landSize <= 11) {\r\n            // E.g $1\r\n            return farmShare.div(2);\r\n        }\r\n        \r\n        // E.g $3\r\n        return farmShare.mul(3).div(2);\r\n    }\r\n\r\n    function receiveReward() public hasFarm {\r\n        uint amount = myReward();\r\n\r\n        require(amount > 0, \"NO_REWARD_AMOUNT\");\r\n\r\n        rewardsOpenedAt[msg.sender] = block.timestamp;\r\n\r\n        token.transfer(msg.sender, amount);\r\n    }\r\n\r\n    /**\r\n        Multi-token economy configurability below\r\n     */\r\n    // An in game material - Crafted Item, NFT or resource\r\n    struct Material {\r\n        address materialAddress;\r\n        bool exists;\r\n    }\r\n    \r\n    struct Cost {\r\n        address materialAddress;\r\n        uint amount;\r\n    }\r\n\r\n    struct Recipe {\r\n        address outputAddress;\r\n        Cost[] costs;\r\n    }\r\n\r\n    struct Resource {\r\n        address outputAddress;\r\n        address inputAddress;\r\n    }\r\n\r\n    mapping(address => Resource) resources;\r\n    mapping(address => Recipe) recipes;\r\n    mapping(address => Material) materials;\r\n\r\n    // Put down a resource - tokens have their own mechanism for reflecting rewards\r\n    function stake(address resourceAddress, uint amount) public {\r\n        Material memory material = materials[resourceAddress];\r\n        require(material.exists, \"RESOURCE_DOES_NOT_EXIST\");\r\n\r\n        Resource memory resource = resources[resourceAddress];\r\n\r\n        ERCItem(resource.inputAddress).burn(msg.sender, amount);\r\n\r\n\r\n        // The resource contract will determine tokenomics and what to do with staked amount\r\n        ERCItem(resource.outputAddress).stake(msg.sender, amount);\r\n    }\r\n\r\n    function createRecipe(address tokenAddress, Cost[] memory costs) public {\r\n        require(tokenAddress != address(token), \"SUNFLOWER_TOKEN_IN_USE\");\r\n        require(!materials[tokenAddress].exists, \"RECIPE_ALREADY_EXISTS\");\r\n\r\n        // Ensure all materials are setup\r\n        for (uint i=0; i < costs.length; i += 1) {\r\n            address input = costs[i].materialAddress;\r\n            Material memory material = materials[input];\r\n\r\n            require(input == address(token) || material.exists, \"MATERIAL_DOES_NOT_EXIST\");\r\n            \r\n            recipes[tokenAddress].costs.push(costs[i]);\r\n        }\r\n\r\n        materials[tokenAddress] = Material({\r\n            exists: true,\r\n            materialAddress: tokenAddress\r\n        });\r\n    }\r\n\r\n    function createResource(address resourceAddress, address requires) public {\r\n        require(resourceAddress != address(token), \"SUNFLOWER_TOKEN_IN_USE\");\r\n        require(!materials[resourceAddress].exists, \"RESOURCE_ALREADY_EXISTS\");\r\n\r\n        // Check the required material is setup\r\n        require(materials[requires].exists, \"MATERIAL_DOES_NOT_EXIST\");\r\n\r\n        resources[resourceAddress] = Resource({\r\n            outputAddress: resourceAddress,\r\n            inputAddress: requires\r\n        });\r\n        \r\n        materials[resourceAddress] = Material({\r\n            exists: true,\r\n            materialAddress: resourceAddress\r\n        });\r\n    }\r\n\r\n    function burnCosts(address recipeAddress, uint total) private {\r\n        Recipe memory recipe = recipes[recipeAddress];\r\n\r\n        // ERC20 contracts will validate as needed\r\n        for (uint i=0; i < recipe.costs.length; i += 1) {\r\n            Cost memory cost = recipe.costs[i];\r\n\r\n            uint price = cost.amount * total;\r\n\r\n            // Never burn SFF - Store rewards in the Farm Contract to redistribute\r\n            if (cost.materialAddress == address(token)) {\r\n                token.transferFrom(msg.sender, address(this), price);\r\n            } else {\r\n                ERCItem(cost.materialAddress).burn(msg.sender, price);\r\n            }\r\n        }\r\n    }\r\n\r\n    function craft(address recipeAddress, uint amount) public {\r\n        Material memory material = materials[recipeAddress];\r\n                \r\n        require(material.exists, \"RECIPE_DOES_NOT_EXIST\");\r\n        \r\n        burnCosts(recipeAddress, amount);\r\n\r\n        ERCItem(recipeAddress).mint(msg.sender, amount);\r\n        \r\n        emit ItemCrafted(msg.sender, recipeAddress);\r\n    }\r\n\r\n    function mintNFT(address recipeAddress, uint tokenId) public {\r\n        Material memory material = materials[recipeAddress];\r\n                \r\n        require(material.exists, \"RECIPE_DOES_NOT_EXIST\");\r\n        \r\n        burnCosts(recipeAddress, 1);\r\n\r\n        ERCItem(recipeAddress).mint(msg.sender, tokenId);\r\n        \r\n        emit ItemCrafted(msg.sender, recipeAddress);\r\n    }\r\n    \r\n    function getRecipe(address recipeAddress) public view returns (Recipe memory recipe) {\r\n        return recipes[recipeAddress];\r\n    }\r\n\r\n    function getResource(address resourceAddress) public view returns (Resource memory resource) {\r\n        return resources[resourceAddress];\r\n    }\r\n}\r\n",
  "sourcePath": "/mnt/c/Users/nfmelendez/crypto/sunflower-farmers/src/contracts/Farm.sol",
  "compiler": {
    "name": "solc",
    "version": "0.7.6+commit.7338295f.Emscripten.clang"
  },
  "schemaVersion": "3.4.4",
  "updatedAt": "2022-01-17T17:57:12.572Z",
  "devdoc": {
    "kind": "dev",
    "methods": {},
    "version": 1
  },
  "userdoc": {
    "kind": "user",
    "methods": {},
    "version": 1
  }
}