{
  "contractName": "FarmV2",
  "abi": [
    {
      "inputs": [
        {
          "internalType": "contract TokenV2",
          "name": "_token",
          "type": "address"
        }
      ],
      "stateMutability": "nonpayable",
      "type": "constructor"
    },
    {
      "anonymous": false,
      "inputs": [
        {
          "indexed": true,
          "internalType": "address",
          "name": "_address",
          "type": "address"
        }
      ],
      "name": "FarmCreated",
      "type": "event"
    },
    {
      "anonymous": false,
      "inputs": [
        {
          "indexed": true,
          "internalType": "address",
          "name": "_address",
          "type": "address"
        }
      ],
      "name": "FarmSynced",
      "type": "event"
    },
    {
      "anonymous": false,
      "inputs": [
        {
          "indexed": true,
          "internalType": "address",
          "name": "_address",
          "type": "address"
        },
        {
          "indexed": false,
          "internalType": "address",
          "name": "_item",
          "type": "address"
        }
      ],
      "name": "ItemCrafted",
      "type": "event"
    },
    {
      "stateMutability": "payable",
      "type": "receive",
      "payable": true
    },
    {
      "inputs": [
        {
          "components": [
            {
              "internalType": "address",
              "name": "account",
              "type": "address"
            },
            {
              "internalType": "uint256",
              "name": "tokenAmount",
              "type": "uint256"
            },
            {
              "internalType": "uint256",
              "name": "size",
              "type": "uint256"
            },
            {
              "internalType": "enum FarmV2.Fruit",
              "name": "fruit",
              "type": "uint8"
            }
          ],
          "internalType": "struct FarmV2.V1Farm[]",
          "name": "farms",
          "type": "tuple[]"
        }
      ],
      "name": "uploadV1Farms",
      "outputs": [],
      "stateMutability": "nonpayable",
      "type": "function"
    },
    {
      "inputs": [],
      "name": "finishMigration",
      "outputs": [],
      "stateMutability": "nonpayable",
      "type": "function"
    },
    {
      "inputs": [
        {
          "internalType": "address payable",
          "name": "_charity",
          "type": "address"
        }
      ],
      "name": "createFarm",
      "outputs": [],
      "stateMutability": "payable",
      "type": "function",
      "payable": true
    },
    {
      "inputs": [
        {
          "internalType": "address",
          "name": "owner",
          "type": "address"
        }
      ],
      "name": "getLand",
      "outputs": [
        {
          "components": [
            {
              "internalType": "enum FarmV2.Fruit",
              "name": "fruit",
              "type": "uint8"
            },
            {
              "internalType": "uint256",
              "name": "createdAt",
              "type": "uint256"
            }
          ],
          "internalType": "struct FarmV2.Square[]",
          "name": "",
          "type": "tuple[]"
        }
      ],
      "stateMutability": "view",
      "type": "function",
      "constant": true
    },
    {
      "inputs": [
        {
          "components": [
            {
              "internalType": "enum FarmV2.Action",
              "name": "action",
              "type": "uint8"
            },
            {
              "internalType": "enum FarmV2.Fruit",
              "name": "fruit",
              "type": "uint8"
            },
            {
              "internalType": "uint256",
              "name": "landIndex",
              "type": "uint256"
            },
            {
              "internalType": "uint256",
              "name": "createdAt",
              "type": "uint256"
            }
          ],
          "internalType": "struct FarmV2.Event[]",
          "name": "_events",
          "type": "tuple[]"
        }
      ],
      "name": "sync",
      "outputs": [
        {
          "components": [
            {
              "components": [
                {
                  "internalType": "enum FarmV2.Fruit",
                  "name": "fruit",
                  "type": "uint8"
                },
                {
                  "internalType": "uint256",
                  "name": "createdAt",
                  "type": "uint256"
                }
              ],
              "internalType": "struct FarmV2.Square[]",
              "name": "land",
              "type": "tuple[]"
            },
            {
              "internalType": "uint256",
              "name": "balance",
              "type": "uint256"
            }
          ],
          "internalType": "struct FarmV2.Farm",
          "name": "",
          "type": "tuple"
        }
      ],
      "stateMutability": "nonpayable",
      "type": "function"
    },
    {
      "inputs": [],
      "name": "levelUp",
      "outputs": [],
      "stateMutability": "nonpayable",
      "type": "function"
    },
    {
      "inputs": [
        {
          "internalType": "uint256",
          "name": "price",
          "type": "uint256"
        }
      ],
      "name": "getMarketPrice",
      "outputs": [
        {
          "internalType": "uint256",
          "name": "conversion",
          "type": "uint256"
        }
      ],
      "stateMutability": "view",
      "type": "function",
      "constant": true
    },
    {
      "inputs": [
        {
          "internalType": "address",
          "name": "account",
          "type": "address"
        }
      ],
      "name": "getFarm",
      "outputs": [
        {
          "components": [
            {
              "internalType": "enum FarmV2.Fruit",
              "name": "fruit",
              "type": "uint8"
            },
            {
              "internalType": "uint256",
              "name": "createdAt",
              "type": "uint256"
            }
          ],
          "internalType": "struct FarmV2.Square[]",
          "name": "farm",
          "type": "tuple[]"
        }
      ],
      "stateMutability": "view",
      "type": "function",
      "constant": true
    },
    {
      "inputs": [],
      "name": "getFarmCount",
      "outputs": [
        {
          "internalType": "uint256",
          "name": "count",
          "type": "uint256"
        }
      ],
      "stateMutability": "view",
      "type": "function",
      "constant": true
    },
    {
      "inputs": [],
      "name": "myReward",
      "outputs": [
        {
          "internalType": "uint256",
          "name": "amount",
          "type": "uint256"
        }
      ],
      "stateMutability": "view",
      "type": "function",
      "constant": true
    },
    {
      "inputs": [],
      "name": "receiveReward",
      "outputs": [],
      "stateMutability": "nonpayable",
      "type": "function"
    },
    {
      "inputs": [
        {
          "internalType": "address",
          "name": "resourceAddress",
          "type": "address"
        },
        {
          "internalType": "uint256",
          "name": "amount",
          "type": "uint256"
        }
      ],
      "name": "stake",
      "outputs": [],
      "stateMutability": "nonpayable",
      "type": "function"
    },
    {
      "inputs": [
        {
          "internalType": "address",
          "name": "tokenAddress",
          "type": "address"
        },
        {
          "components": [
            {
              "internalType": "address",
              "name": "materialAddress",
              "type": "address"
            },
            {
              "internalType": "uint256",
              "name": "amount",
              "type": "uint256"
            }
          ],
          "internalType": "struct FarmV2.Cost[]",
          "name": "costs",
          "type": "tuple[]"
        }
      ],
      "name": "createRecipe",
      "outputs": [],
      "stateMutability": "nonpayable",
      "type": "function"
    },
    {
      "inputs": [
        {
          "internalType": "address",
          "name": "resourceAddress",
          "type": "address"
        },
        {
          "internalType": "address",
          "name": "requires",
          "type": "address"
        }
      ],
      "name": "createResource",
      "outputs": [],
      "stateMutability": "nonpayable",
      "type": "function"
    },
    {
      "inputs": [
        {
          "internalType": "address",
          "name": "recipeAddress",
          "type": "address"
        },
        {
          "internalType": "uint256",
          "name": "amount",
          "type": "uint256"
        }
      ],
      "name": "craft",
      "outputs": [],
      "stateMutability": "nonpayable",
      "type": "function"
    },
    {
      "inputs": [
        {
          "internalType": "address",
          "name": "recipeAddress",
          "type": "address"
        },
        {
          "internalType": "uint256",
          "name": "tokenId",
          "type": "uint256"
        }
      ],
      "name": "mintNFT",
      "outputs": [],
      "stateMutability": "nonpayable",
      "type": "function"
    },
    {
      "inputs": [
        {
          "internalType": "address",
          "name": "recipeAddress",
          "type": "address"
        }
      ],
      "name": "getRecipe",
      "outputs": [
        {
          "components": [
            {
              "internalType": "address",
              "name": "outputAddress",
              "type": "address"
            },
            {
              "components": [
                {
                  "internalType": "address",
                  "name": "materialAddress",
                  "type": "address"
                },
                {
                  "internalType": "uint256",
                  "name": "amount",
                  "type": "uint256"
                }
              ],
              "internalType": "struct FarmV2.Cost[]",
              "name": "costs",
              "type": "tuple[]"
            }
          ],
          "internalType": "struct FarmV2.Recipe",
          "name": "recipe",
          "type": "tuple"
        }
      ],
      "stateMutability": "view",
      "type": "function",
      "constant": true
    },
    {
      "inputs": [
        {
          "internalType": "address",
          "name": "resourceAddress",
          "type": "address"
        }
      ],
      "name": "getResource",
      "outputs": [
        {
          "components": [
            {
              "internalType": "address",
              "name": "outputAddress",
              "type": "address"
            },
            {
              "internalType": "address",
              "name": "inputAddress",
              "type": "address"
            }
          ],
          "internalType": "struct FarmV2.Resource",
          "name": "resource",
          "type": "tuple"
        }
      ],
      "stateMutability": "view",
      "type": "function",
      "constant": true
    }
  ],
  "bytecode": "0x608060405260006001556001600260006101000a81548160ff0219169083151502179055506107086006553480156200003757600080fd5b5060405162005b7338038062005b7383398181016040528101906200005d9190620000bb565b806000806101000a81548173ffffffffffffffffffffffffffffffffffffffff021916908373ffffffffffffffffffffffffffffffffffffffff1602179055505062000149565b600081519050620000b5816200012f565b92915050565b600060208284031215620000ce57600080fd5b6000620000de84828501620000a4565b91505092915050565b6000620000f4826200010f565b9050919050565b60006200010882620000e7565b9050919050565b600073ffffffffffffffffffffffffffffffffffffffff82169050919050565b6200013a81620000fb565b81146200014657600080fd5b50565b615a1a80620001596000396000f3fe60806040526004361061010d5760003560e01c8063827a7dac11610095578063ac7d8bd111610064578063ac7d8bd114610365578063adc9772e1461038e578063c1d942c1146103b7578063d53f9c9b146103e0578063ff3d9e4f1461041d57610114565b8063827a7dac146102ab57806388d761f2146102e85780638928378e146102ff5780638cc0519b1461033c57610114565b8063429692a7116100dc578063429692a7146101c65780634ea1ecf9146101f1578063614e4cdb146102085780636e9f81e5146102455780637c9c17781461026e57610114565b8063061278c0146101195780633bfc187c146101355780633c168eab14610172578063428495701461019b57610114565b3661011457005b600080fd5b610133600480360381019061012e91906147b4565b610434565b005b34801561014157600080fd5b5061015c6004803603810190610157919061478b565b610abf565b6040516101699190615368565b60405180910390f35b34801561017e57600080fd5b506101996004803603810190610194919061486d565b610b94565b005b3480156101a757600080fd5b506101b0610d62565b6040516101bd91906156e9565b60405180910390f35b3480156101d257600080fd5b506101db610ffd565b6040516101e891906156e9565b60405180910390f35b3480156101fd57600080fd5b50610206611007565b005b34801561021457600080fd5b5061022f600480360381019061022a919061478b565b6113c4565b60405161023c9190615368565b60405180910390f35b34801561025157600080fd5b5061026c600480360381019061026791906148ea565b611499565b005b34801561027a57600080fd5b506102956004803603810190610290919061478b565b6117ea565b6040516102a291906156ac565b60405180910390f35b3480156102b757600080fd5b506102d260048036038101906102cd919061478b565b611958565b6040516102df91906156ce565b60405180910390f35b3480156102f457600080fd5b506102fd611a5d565b005b34801561030b57600080fd5b5061032660048036038101906103219190614954565b611a7a565b60405161033391906156e9565b60405180910390f35b34801561034857600080fd5b50610363600480360381019061035e9190614819565b611aa2565b005b34801561037157600080fd5b5061038c600480360381019061038791906147dd565b611efd565b005b34801561039a57600080fd5b506103b560048036038101906103b0919061486d565b612297565b005b3480156103c357600080fd5b506103de60048036038101906103d9919061486d565b61257c565b005b3480156103ec57600080fd5b50610407600480360381019061040291906148a9565b612749565b604051610414919061568a565b60405180910390f35b34801561042957600080fd5b50610432612b21565b005b6000600460003373ffffffffffffffffffffffffffffffffffffffff1673ffffffffffffffffffffffffffffffffffffffff16815260200190815260200160002054146104b6576040517f08c379a00000000000000000000000000000000000000000000000000000000081526004016104ad906153ca565b60405180910390fd5b60008060009054906101000a900473ffffffffffffffffffffffffffffffffffffffff1673ffffffffffffffffffffffffffffffffffffffff1663313ce5676040518163ffffffff1660e01b815260040160206040518083038186803b15801561051f57600080fd5b505afa158015610533573d6000803e3d6000fd5b505050506040513d601f19601f8201168201806040525081019061055791906149a6565b60ff16905060018103600a0a6001023410156105a8576040517f08c379a000000000000000000000000000000000000000000000000000000000815260040161059f9061554a565b60405180910390fd5b73060697e9d4eea886ebece57a974facd53a40865b73ffffffffffffffffffffffffffffffffffffffff168273ffffffffffffffffffffffffffffffffffffffff161480610635575073d3f81260a44a1df7a7269cf66abd9c7e4f8cdcd173ffffffffffffffffffffffffffffffffffffffff168273ffffffffffffffffffffffffffffffffffffffff16145b8061067f5750733c8cb169281196737c493affa8f49a9d823bb9c573ffffffffffffffffffffffffffffffffffffffff168273ffffffffffffffffffffffffffffffffffffffff16145b6106be576040517f08c379a00000000000000000000000000000000000000000000000000000000081526004016106b5906155ca565b60405180910390fd5b6000600360003373ffffffffffffffffffffffffffffffffffffffff1673ffffffffffffffffffffffffffffffffffffffff1681526020019081526020016000209050600060405180604001604052806000600781111561071b57fe5b815260200160008152509050600060405180604001604052806001600781111561074157fe5b8152602001600081525090508282908060018154018082558091505060019003906000526020600020906002020160009091909190915060008201518160000160006101000a81548160ff0219169083600781111561079c57fe5b02179055506020820151816001015550508281908060018154018082558091505060019003906000526020600020906002020160009091909190915060008201518160000160006101000a81548160ff021916908360078111156107fc57fe5b02179055506020820151816001015550508281908060018154018082558091505060019003906000526020600020906002020160009091909190915060008201518160000160006101000a81548160ff0219169083600781111561085c57fe5b02179055506020820151816001015550508281908060018154018082558091505060019003906000526020600020906002020160009091909190915060008201518160000160006101000a81548160ff021916908360078111156108bc57fe5b02179055506020820151816001015550508282908060018154018082558091505060019003906000526020600020906002020160009091909190915060008201518160000160006101000a81548160ff0219169083600781111561091c57fe5b021790555060208201518160010155505042600460003373ffffffffffffffffffffffffffffffffffffffff1673ffffffffffffffffffffffffffffffffffffffff1681526020019081526020016000208190555042600560003373ffffffffffffffffffffffffffffffffffffffff1673ffffffffffffffffffffffffffffffffffffffff168152602001908152602001600020819055506000808673ffffffffffffffffffffffffffffffffffffffff16346040516109dc90615294565b60006040518083038185875af1925050503d8060008114610a19576040519150601f19603f3d011682016040523d82523d6000602084013e610a1e565b606091505b509150915081610a63576040517f08c379a0000000000000000000000000000000000000000000000000000000008152600401610a5a906154aa565b60405180910390fd5b600180600082825401925050819055503373ffffffffffffffffffffffffffffffffffffffff167f46963f16723a084f2199eb74021bd97647aa6c8960612a9a031ce509d40d4ca760405160405180910390a250505050505050565b6060600360008373ffffffffffffffffffffffffffffffffffffffff1673ffffffffffffffffffffffffffffffffffffffff168152602001908152602001600020805480602002602001604051908101604052809291908181526020016000905b82821015610b8957838290600052602060002090600202016040518060400160405290816000820160009054906101000a900460ff166007811115610b6157fe5b6007811115610b6c57fe5b815260200160018201548152505081526020019060010190610b20565b505050509050919050565b6000600960008473ffffffffffffffffffffffffffffffffffffffff1673ffffffffffffffffffffffffffffffffffffffff1681526020019081526020016000206040518060400160405290816000820160009054906101000a900473ffffffffffffffffffffffffffffffffffffffff1673ffffffffffffffffffffffffffffffffffffffff1673ffffffffffffffffffffffffffffffffffffffff1681526020016000820160149054906101000a900460ff16151515158152505090508060200151610c97576040517f08c379a0000000000000000000000000000000000000000000000000000000008152600401610c8e906153ea565b60405180910390fd5b610ca2836001612cb0565b8273ffffffffffffffffffffffffffffffffffffffff166340c10f1933846040518363ffffffff1660e01b8152600401610cdd929190615316565b600060405180830381600087803b158015610cf757600080fd5b505af1158015610d0b573d6000803e3d6000fd5b505050503373ffffffffffffffffffffffffffffffffffffffff167fa3861d07b228ca9388790f0511b1694eb1c7398116202f27fd54838c07d2e6cc84604051610d5591906152a9565b60405180910390a2505050565b600080610d6e33612fdc565b11610dae576040517f08c379a0000000000000000000000000000000000000000000000000000000008152600401610da59061566a565b60405180910390fd5b6000600560003373ffffffffffffffffffffffffffffffffffffffff1673ffffffffffffffffffffffffffffffffffffffff1681526020019081526020016000205490506000610e0a6203f4804261302590919063ffffffff16565b9050808210610e4e576040517f08c379a0000000000000000000000000000000000000000000000000000000008152600401610e459061544a565b60405180910390fd5b6000600360003373ffffffffffffffffffffffffffffffffffffffff1673ffffffffffffffffffffffffffffffffffffffff16815260200190815260200160002080549050905060008060009054906101000a900473ffffffffffffffffffffffffffffffffffffffff1673ffffffffffffffffffffffffffffffffffffffff166370a08231306040518263ffffffff1660e01b8152600401610ef191906152c4565b60206040518083038186803b158015610f0957600080fd5b505afa158015610f1d573d6000803e3d6000fd5b505050506040513d601f19601f82011682018060405250810190610f41919061497d565b905060006001548281610f5057fe5b04905060058311610f7b57610f6f600a826130a890919063ffffffff16565b95505050505050610ffa565b60088311610fa357610f976005826130a890919063ffffffff16565b95505050505050610ffa565b600b8311610fcb57610fbf6002826130a890919063ffffffff16565b95505050505050610ffa565b610ff26002610fe460038461313190919063ffffffff16565b6130a890919063ffffffff16565b955050505050505b90565b6000600154905090565b600061101233612fdc565b11611052576040517f08c379a00000000000000000000000000000000000000000000000000000000081526004016110499061566a565b60405180910390fd5b6011600360003373ffffffffffffffffffffffffffffffffffffffff1673ffffffffffffffffffffffffffffffffffffffff1681526020019081526020016000208054905011156110d8576040517f08c379a00000000000000000000000000000000000000000000000000000000081526004016110cf9061548a565b60405180910390fd5b6000600360003373ffffffffffffffffffffffffffffffffffffffff1673ffffffffffffffffffffffffffffffffffffffff1681526020019081526020016000209050600061112a82805490506131b7565b9050600061113782611a7a565b905060008060009054906101000a900473ffffffffffffffffffffffffffffffffffffffff1673ffffffffffffffffffffffffffffffffffffffff166370a08231336040518263ffffffff1660e01b815260040161119591906152c4565b60206040518083038186803b1580156111ad57600080fd5b505afa1580156111c1573d6000803e3d6000fd5b505050506040513d601f19601f820116820180604052508101906111e5919061497d565b90508181101561122a576040517f08c379a0000000000000000000000000000000000000000000000000000000008152600401611221906153aa565b60405180910390fd5b60008054906101000a900473ffffffffffffffffffffffffffffffffffffffff1673ffffffffffffffffffffffffffffffffffffffff166323b872dd3330856040518463ffffffff1660e01b8152600401611287939291906152df565b602060405180830381600087803b1580156112a157600080fd5b505af11580156112b5573d6000803e3d6000fd5b505050506040513d601f19601f820116820180604052508101906112d9919061492b565b5060006040518060400160405280600160078111156112f457fe5b81526020016000815250905060005b6003811015611379578582908060018154018082558091505060019003906000526020600020906002020160009091909190915060008201518160000160006101000a81548160ff0219169083600781111561135b57fe5b02179055506020820151816001015550508080600101915050611303565b503373ffffffffffffffffffffffffffffffffffffffff167fbe35fe23c13a419d565edccb8c8bdedc160c5b9a82873e431b545080d6f3c68860405160405180910390a25050505050565b6060600360008373ffffffffffffffffffffffffffffffffffffffff1673ffffffffffffffffffffffffffffffffffffffff168152602001908152602001600020805480602002602001604051908101604052809291908181526020016000905b8282101561148e57838290600052602060002090600202016040518060400160405290816000820160009054906101000a900460ff16600781111561146657fe5b600781111561147157fe5b815260200160018201548152505081526020019060010190611425565b505050509050919050565b600260009054906101000a900460ff166114e8576040517f08c379a00000000000000000000000000000000000000000000000000000000081526004016114df906155ea565b60405180910390fd5b60008060009054906101000a900473ffffffffffffffffffffffffffffffffffffffff1673ffffffffffffffffffffffffffffffffffffffff1663313ce5676040518163ffffffff1660e01b815260040160206040518083038186803b15801561155157600080fd5b505afa158015611565573d6000803e3d6000fd5b505050506040513d601f19601f8201168201806040525081019061158991906149a6565b60ff16905060005b82518110156117e55760008382815181106115a857fe5b60200260200101519050600060036000836000015173ffffffffffffffffffffffffffffffffffffffff1673ffffffffffffffffffffffffffffffffffffffff1681526020019081526020016000209050600060405180604001604052808460600151600781111561161657fe5b81526020016000815250905060005b836040015181101561169c578282908060018154018082558091505060019003906000526020600020906002020160009091909190915060008201518160000160006101000a81548160ff0219169083600781111561168057fe5b0217905550602082015181600101555050600181019050611625565b504260046000856000015173ffffffffffffffffffffffffffffffffffffffff1673ffffffffffffffffffffffffffffffffffffffff168152602001908152602001600020819055504260056000856000015173ffffffffffffffffffffffffffffffffffffffff1673ffffffffffffffffffffffffffffffffffffffff1681526020019081526020016000208190555060008054906101000a900473ffffffffffffffffffffffffffffffffffffffff1673ffffffffffffffffffffffffffffffffffffffff166340c10f19846000015187600a0a8660200151026040518363ffffffff1660e01b815260040161179592919061533f565b600060405180830381600087803b1580156117af57600080fd5b505af11580156117c3573d6000803e3d6000fd5b5050505060018060008282540192505081905550505050600181019050611591565b505050565b6117f261435d565b600860008373ffffffffffffffffffffffffffffffffffffffff1673ffffffffffffffffffffffffffffffffffffffff1681526020019081526020016000206040518060400160405290816000820160009054906101000a900473ffffffffffffffffffffffffffffffffffffffff1673ffffffffffffffffffffffffffffffffffffffff1673ffffffffffffffffffffffffffffffffffffffff16815260200160018201805480602002602001604051908101604052809291908181526020016000905b8282101561194957838290600052602060002090600202016040518060400160405290816000820160009054906101000a900473ffffffffffffffffffffffffffffffffffffffff1673ffffffffffffffffffffffffffffffffffffffff1673ffffffffffffffffffffffffffffffffffffffff168152602001600182015481525050815260200190600101906118b7565b50505050815250509050919050565b61196061438d565b600760008373ffffffffffffffffffffffffffffffffffffffff1673ffffffffffffffffffffffffffffffffffffffff1681526020019081526020016000206040518060400160405290816000820160009054906101000a900473ffffffffffffffffffffffffffffffffffffffff1673ffffffffffffffffffffffffffffffffffffffff1673ffffffffffffffffffffffffffffffffffffffff1681526020016001820160009054906101000a900473ffffffffffffffffffffffffffffffffffffffff1673ffffffffffffffffffffffffffffffffffffffff1673ffffffffffffffffffffffffffffffffffffffff16815250509050919050565b6000600260006101000a81548160ff021916908315150217905550565b600080611a856132b4565b9050611a9a81846130a890919063ffffffff16565b915050919050565b60008054906101000a900473ffffffffffffffffffffffffffffffffffffffff1673ffffffffffffffffffffffffffffffffffffffff168273ffffffffffffffffffffffffffffffffffffffff161415611b31576040517f08c379a0000000000000000000000000000000000000000000000000000000008152600401611b289061556a565b60405180910390fd5b600960008373ffffffffffffffffffffffffffffffffffffffff1673ffffffffffffffffffffffffffffffffffffffff16815260200190815260200160002060000160149054906101000a900460ff1615611bc1576040517f08c379a0000000000000000000000000000000000000000000000000000000008152600401611bb89061538a565b60405180910390fd5b60005b8151811015611e21576000828281518110611bdb57fe5b60200260200101516000015190506000600960008373ffffffffffffffffffffffffffffffffffffffff1673ffffffffffffffffffffffffffffffffffffffff1681526020019081526020016000206040518060400160405290816000820160009054906101000a900473ffffffffffffffffffffffffffffffffffffffff1673ffffffffffffffffffffffffffffffffffffffff1673ffffffffffffffffffffffffffffffffffffffff1681526020016000820160149054906101000a900460ff161515151581525050905060008054906101000a900473ffffffffffffffffffffffffffffffffffffffff1673ffffffffffffffffffffffffffffffffffffffff168273ffffffffffffffffffffffffffffffffffffffff161480611d03575080602001515b611d42576040517f08c379a0000000000000000000000000000000000000000000000000000000008152600401611d399061560a565b60405180910390fd5b600860008673ffffffffffffffffffffffffffffffffffffffff1673ffffffffffffffffffffffffffffffffffffffff168152602001908152602001600020600101848481518110611d9057fe5b6020026020010151908060018154018082558091505060019003906000526020600020906002020160009091909190915060008201518160000160006101000a81548173ffffffffffffffffffffffffffffffffffffffff021916908373ffffffffffffffffffffffffffffffffffffffff1602179055506020820151816001015550505050600181019050611bc4565b5060405180604001604052808373ffffffffffffffffffffffffffffffffffffffff16815260200160011515815250600960008473ffffffffffffffffffffffffffffffffffffffff1673ffffffffffffffffffffffffffffffffffffffff16815260200190815260200160002060008201518160000160006101000a81548173ffffffffffffffffffffffffffffffffffffffff021916908373ffffffffffffffffffffffffffffffffffffffff16021790555060208201518160000160146101000a81548160ff0219169083151502179055509050505050565b60008054906101000a900473ffffffffffffffffffffffffffffffffffffffff1673ffffffffffffffffffffffffffffffffffffffff168273ffffffffffffffffffffffffffffffffffffffff161415611f8c576040517f08c379a0000000000000000000000000000000000000000000000000000000008152600401611f839061556a565b60405180910390fd5b600960008373ffffffffffffffffffffffffffffffffffffffff1673ffffffffffffffffffffffffffffffffffffffff16815260200190815260200160002060000160149054906101000a900460ff161561201c576040517f08c379a00000000000000000000000000000000000000000000000000000000081526004016120139061540a565b60405180910390fd5b600960008273ffffffffffffffffffffffffffffffffffffffff1673ffffffffffffffffffffffffffffffffffffffff16815260200190815260200160002060000160149054906101000a900460ff166120ab576040517f08c379a00000000000000000000000000000000000000000000000000000000081526004016120a29061560a565b60405180910390fd5b60405180604001604052808373ffffffffffffffffffffffffffffffffffffffff1681526020018273ffffffffffffffffffffffffffffffffffffffff16815250600760008473ffffffffffffffffffffffffffffffffffffffff1673ffffffffffffffffffffffffffffffffffffffff16815260200190815260200160002060008201518160000160006101000a81548173ffffffffffffffffffffffffffffffffffffffff021916908373ffffffffffffffffffffffffffffffffffffffff16021790555060208201518160010160006101000a81548173ffffffffffffffffffffffffffffffffffffffff021916908373ffffffffffffffffffffffffffffffffffffffff16021790555090505060405180604001604052808373ffffffffffffffffffffffffffffffffffffffff16815260200160011515815250600960008473ffffffffffffffffffffffffffffffffffffffff1673ffffffffffffffffffffffffffffffffffffffff16815260200190815260200160002060008201518160000160006101000a81548173ffffffffffffffffffffffffffffffffffffffff021916908373ffffffffffffffffffffffffffffffffffffffff16021790555060208201518160000160146101000a81548160ff0219169083151502179055509050505050565b6000600960008473ffffffffffffffffffffffffffffffffffffffff1673ffffffffffffffffffffffffffffffffffffffff1681526020019081526020016000206040518060400160405290816000820160009054906101000a900473ffffffffffffffffffffffffffffffffffffffff1673ffffffffffffffffffffffffffffffffffffffff1673ffffffffffffffffffffffffffffffffffffffff1681526020016000820160149054906101000a900460ff1615151515815250509050806020015161239a576040517f08c379a00000000000000000000000000000000000000000000000000000000081526004016123919061558a565b60405180910390fd5b6000600760008573ffffffffffffffffffffffffffffffffffffffff1673ffffffffffffffffffffffffffffffffffffffff1681526020019081526020016000206040518060400160405290816000820160009054906101000a900473ffffffffffffffffffffffffffffffffffffffff1673ffffffffffffffffffffffffffffffffffffffff1673ffffffffffffffffffffffffffffffffffffffff1681526020016001820160009054906101000a900473ffffffffffffffffffffffffffffffffffffffff1673ffffffffffffffffffffffffffffffffffffffff1673ffffffffffffffffffffffffffffffffffffffff16815250509050806020015173ffffffffffffffffffffffffffffffffffffffff16639dc29fac33856040518363ffffffff1660e01b81526004016124d3929190615316565b600060405180830381600087803b1580156124ed57600080fd5b505af1158015612501573d6000803e3d6000fd5b50505050806000015173ffffffffffffffffffffffffffffffffffffffff1663adc9772e33856040518363ffffffff1660e01b8152600401612544929190615316565b600060405180830381600087803b15801561255e57600080fd5b505af1158015612572573d6000803e3d6000fd5b5050505050505050565b6000600960008473ffffffffffffffffffffffffffffffffffffffff1673ffffffffffffffffffffffffffffffffffffffff1681526020019081526020016000206040518060400160405290816000820160009054906101000a900473ffffffffffffffffffffffffffffffffffffffff1673ffffffffffffffffffffffffffffffffffffffff1673ffffffffffffffffffffffffffffffffffffffff1681526020016000820160149054906101000a900460ff1615151515815250509050806020015161267f576040517f08c379a0000000000000000000000000000000000000000000000000000000008152600401612676906153ea565b60405180910390fd5b6126898383612cb0565b8273ffffffffffffffffffffffffffffffffffffffff166340c10f1933846040518363ffffffff1660e01b81526004016126c4929190615316565b600060405180830381600087803b1580156126de57600080fd5b505af11580156126f2573d6000803e3d6000fd5b505050503373ffffffffffffffffffffffffffffffffffffffff167fa3861d07b228ca9388790f0511b1694eb1c7398116202f27fd54838c07d2e6cc8460405161273c91906152a9565b60405180910390a2505050565b6127516143d3565b600061275c33612fdc565b1161279c576040517f08c379a00000000000000000000000000000000000000000000000000000000081526004016127939061566a565b60405180910390fd5b60006127a783613515565b90506000600360003373ffffffffffffffffffffffffffffffffffffffff1673ffffffffffffffffffffffffffffffffffffffff168152602001908152602001600020905060005b82600001515181101561286f578260000151818151811061280c57fe5b602002602001015182828154811061282057fe5b906000526020600020906002020160008201518160000160006101000a81548160ff0219169083600781111561285257fe5b0217905550602082015181600101559050506001810190506127ef565b5042600460003373ffffffffffffffffffffffffffffffffffffffff1673ffffffffffffffffffffffffffffffffffffffff1681526020019081526020016000208190555060008060009054906101000a900473ffffffffffffffffffffffffffffffffffffffff1673ffffffffffffffffffffffffffffffffffffffff166370a08231336040518263ffffffff1660e01b815260040161291091906152c4565b60206040518083038186803b15801561292857600080fd5b505afa15801561293c573d6000803e3d6000fd5b505050506040513d601f19601f82011682018060405250810190612960919061497d565b90508083602001511115612a1c57600061298782856020015161302590919063ffffffff16565b905060008054906101000a900473ffffffffffffffffffffffffffffffffffffffff1673ffffffffffffffffffffffffffffffffffffffff166340c10f1933836040518363ffffffff1660e01b81526004016129e4929190615316565b600060405180830381600087803b1580156129fe57600080fd5b505af1158015612a12573d6000803e3d6000fd5b5050505050612ad3565b8083602001511015612ad2576000612a4184602001518361302590919063ffffffff16565b905060008054906101000a900473ffffffffffffffffffffffffffffffffffffffff1673ffffffffffffffffffffffffffffffffffffffff16639dc29fac33836040518363ffffffff1660e01b8152600401612a9e929190615316565b600060405180830381600087803b158015612ab857600080fd5b505af1158015612acc573d6000803e3d6000fd5b50505050505b5b3373ffffffffffffffffffffffffffffffffffffffff167fbe35fe23c13a419d565edccb8c8bdedc160c5b9a82873e431b545080d6f3c68860405160405180910390a2829350505050919050565b6000612b2c33612fdc565b11612b6c576040517f08c379a0000000000000000000000000000000000000000000000000000000008152600401612b639061566a565b60405180910390fd5b6000612b76610d62565b905060008111612bbb576040517f08c379a0000000000000000000000000000000000000000000000000000000008152600401612bb29061552a565b60405180910390fd5b42600560003373ffffffffffffffffffffffffffffffffffffffff1673ffffffffffffffffffffffffffffffffffffffff1681526020019081526020016000208190555060008054906101000a900473ffffffffffffffffffffffffffffffffffffffff1673ffffffffffffffffffffffffffffffffffffffff1663a9059cbb33836040518363ffffffff1660e01b8152600401612c5a929190615316565b602060405180830381600087803b158015612c7457600080fd5b505af1158015612c88573d6000803e3d6000fd5b505050506040513d601f19601f82011682018060405250810190612cac919061492b565b5050565b6000600860008473ffffffffffffffffffffffffffffffffffffffff1673ffffffffffffffffffffffffffffffffffffffff1681526020019081526020016000206040518060400160405290816000820160009054906101000a900473ffffffffffffffffffffffffffffffffffffffff1673ffffffffffffffffffffffffffffffffffffffff1673ffffffffffffffffffffffffffffffffffffffff16815260200160018201805480602002602001604051908101604052809291908181526020016000905b82821015612e0957838290600052602060002090600202016040518060400160405290816000820160009054906101000a900473ffffffffffffffffffffffffffffffffffffffff1673ffffffffffffffffffffffffffffffffffffffff1673ffffffffffffffffffffffffffffffffffffffff16815260200160018201548152505081526020019060010190612d77565b5050505081525050905060005b816020015151811015612fd657600082602001518281518110612e3557fe5b60200260200101519050600084826020015102905060008054906101000a900473ffffffffffffffffffffffffffffffffffffffff1673ffffffffffffffffffffffffffffffffffffffff16826000015173ffffffffffffffffffffffffffffffffffffffff161415612f575760008054906101000a900473ffffffffffffffffffffffffffffffffffffffff1673ffffffffffffffffffffffffffffffffffffffff166323b872dd3330846040518463ffffffff1660e01b8152600401612eff939291906152df565b602060405180830381600087803b158015612f1957600080fd5b505af1158015612f2d573d6000803e3d6000fd5b505050506040513d601f19601f82011682018060405250810190612f51919061492b565b50612fc9565b816000015173ffffffffffffffffffffffffffffffffffffffff16639dc29fac33836040518363ffffffff1660e01b8152600401612f96929190615316565b600060405180830381600087803b158015612fb057600080fd5b505af1158015612fc4573d6000803e3d6000fd5b505050505b5050600181019050612e16565b50505050565b6000600460008373ffffffffffffffffffffffffffffffffffffffff1673ffffffffffffffffffffffffffffffffffffffff168152602001908152602001600020549050919050565b60008282111561309d576040517f08c379a000000000000000000000000000000000000000000000000000000000815260040180806020018281038252601e8152602001807f536166654d6174683a207375627472616374696f6e206f766572666c6f77000081525060200191505060405180910390fd5b818303905092915050565b600080821161311f576040517f08c379a000000000000000000000000000000000000000000000000000000000815260040180806020018281038252601a8152602001807f536166654d6174683a206469766973696f6e206279207a65726f00000000000081525060200191505060405180910390fd5b81838161312857fe5b04905092915050565b60008083141561314457600090506131b1565b600082840290508284828161315557fe5b04146131ac576040517f08c379a00000000000000000000000000000000000000000000000000000000081526004018080602001828103825260218152602001806159c46021913960400191505060405180910390fd5b809150505b92915050565b60008060008054906101000a900473ffffffffffffffffffffffffffffffffffffffff1673ffffffffffffffffffffffffffffffffffffffff1663313ce5676040518163ffffffff1660e01b815260040160206040518083038186803b15801561322057600080fd5b505afa158015613234573d6000803e3d6000fd5b505050506040513d601f19601f8201168201806040525081019061325891906149a6565b60ff169050600583116132745780600a0a6001029150506132af565b6008831161328b5780600a0a6032029150506132af565b600b83116132a35780600a0a6101f4029150506132af565b80600a0a6109c4029150505b919050565b60008060008054906101000a900473ffffffffffffffffffffffffffffffffffffffff1673ffffffffffffffffffffffffffffffffffffffff1663313ce5676040518163ffffffff1660e01b815260040160206040518083038186803b15801561331d57600080fd5b505afa158015613331573d6000803e3d6000fd5b505050506040513d601f19601f8201168201806040525081019061335591906149a6565b60ff16905060008060009054906101000a900473ffffffffffffffffffffffffffffffffffffffff1673ffffffffffffffffffffffffffffffffffffffff166318160ddd6040518163ffffffff1660e01b815260040160206040518083038186803b1580156133c357600080fd5b505afa1580156133d7573d6000803e3d6000fd5b505050506040513d601f19601f820116820180604052508101906133fb919061497d565b905081600a0a620186a00281101561341857600192505050613512565b81600a0a6207a1200281101561343357600592505050613512565b81600a0a620f42400281101561344e57600a92505050613512565b81600a0a624c4b400281101561346957603292505050613512565b81600a0a629896800281101561348457606492505050613512565b81600a0a6302faf080028110156134a1576101f492505050613512565b81600a0a6305f5e100028110156134be576103e892505050613512565b81600a0a631dcd6500028110156134db5761138892505050613512565b81600a0a633b9aca00028110156134f85761271092505050613512565b61350d612710826130a890919063ffffffff16565b925050505b90565b61351d6143d3565b600061352833612fdc565b11613568576040517f08c379a000000000000000000000000000000000000000000000000000000000815260040161355f9061566a565b60405180910390fd5b6000600360003373ffffffffffffffffffffffffffffffffffffffff1673ffffffffffffffffffffffffffffffffffffffff168152602001908152602001600020805480602002602001604051908101604052809291908181526020016000905b8282101561363257838290600052602060002090600202016040518060400160405290816000820160009054906101000a900460ff16600781111561360a57fe5b600781111561361557fe5b8152602001600182015481525050815260200190600101906135c9565b50505050905060008060009054906101000a900473ffffffffffffffffffffffffffffffffffffffff1673ffffffffffffffffffffffffffffffffffffffff166370a08231336040518263ffffffff1660e01b815260040161369491906152c4565b60206040518083038186803b1580156136ac57600080fd5b505afa1580156136c0573d6000803e3d6000fd5b505050506040513d601f19601f820116820180604052508101906136e4919061497d565b905060005b8451811015613b3f57600085828151811061370057fe5b6020026020010151905060006137216006544261302590919063ffffffff16565b9050808260600151101561376a576040517f08c379a00000000000000000000000000000000000000000000000000000000081526004016137619061550a565b60405180910390fd5b61377333612fdc565b826060015110156137b9576040517f08c379a00000000000000000000000000000000000000000000000000000000081526004016137b09061542a565b60405180910390fd5b4282606001511115613800576040517f08c379a00000000000000000000000000000000000000000000000000000000081526004016137f7906154ca565b60405180910390fd5b600083111561386b5786600184038151811061381857fe5b6020026020010151606001518260600151101561386a576040517f08c379a0000000000000000000000000000000000000000000000000000000008152600401613861906154ea565b60405180910390fd5b5b6000600181111561387857fe5b8260000151600181111561388857fe5b14156139a45761389b8260200151613b5e565b855110156138de576040517f08c379a00000000000000000000000000000000000000000000000000000000081526004016138d59061562a565b60405180910390fd5b60006138ed8360200151613cb4565b905060006138fa82611a7a565b90508086101561393f576040517f08c379a0000000000000000000000000000000000000000000000000000000008152600401613936906153aa565b60405180910390fd5b613952818761302590919063ffffffff16565b9550600060405180604001604052808660200151600781111561397157fe5b815260200186606001518152509050808886604001518151811061399157fe5b6020026020010181905250505050613b30565b6001808111156139b057fe5b826000015160018111156139c057fe5b1415613b2f576000858360400151815181106139d857fe5b60200260200101519050600060078111156139ef57fe5b816000015160078111156139ff57fe5b1415613a40576040517f08c379a0000000000000000000000000000000000000000000000000000000008152600401613a379061564a565b60405180910390fd5b6000613a5d8260200151856060015161302590919063ffffffff16565b90506000613a6e8360000151613f0c565b905080821015613ab3576040517f08c379a0000000000000000000000000000000000000000000000000000000008152600401613aaa906155aa565b60405180910390fd5b6000604051806040016040528060006007811115613acd57fe5b8152602001600081525090508089876040015181518110613aea57fe5b60200260200101819052506000613b04856000015161407a565b90506000613b1182611a7a565b9050613b26818b6142d590919063ffffffff16565b99505050505050505b5b505080806001019150506136e9565b5060405180604001604052808381526020018281525092505050919050565b600060016007811115613b6d57fe5b826007811115613b7957fe5b1480613b9b575060026007811115613b8d57fe5b826007811115613b9957fe5b145b15613ba95760059050613caf565b60036007811115613bb657fe5b826007811115613bc257fe5b1480613be4575060046007811115613bd657fe5b826007811115613be257fe5b145b15613bf25760089050613caf565b60056007811115613bff57fe5b826007811115613c0b57fe5b1415613c1a57600b9050613caf565b60066007811115613c2757fe5b826007811115613c3357fe5b1415613c4257600e9050613caf565b600780811115613c4e57fe5b826007811115613c5a57fe5b1415613c695760119050613caf565b6000613caa576040517f08c379a0000000000000000000000000000000000000000000000000000000008152600401613ca19061546a565b60405180910390fd5b606390505b919050565b60008060008054906101000a900473ffffffffffffffffffffffffffffffffffffffff1673ffffffffffffffffffffffffffffffffffffffff1663313ce5676040518163ffffffff1660e01b815260040160206040518083038186803b158015613d1d57600080fd5b505afa158015613d31573d6000803e3d6000fd5b505050506040513d601f19601f82011682018060405250810190613d5591906149a6565b60ff16905060016007811115613d6757fe5b836007811115613d7357fe5b1415613d9257606481600a0a60010281613d8957fe5b04915050613f07565b60026007811115613d9f57fe5b836007811115613dab57fe5b1415613dca57606481600a0a600a0281613dc157fe5b04915050613f07565b60036007811115613dd757fe5b836007811115613de357fe5b1415613e0257606481600a0a60280281613df957fe5b04915050613f07565b60046007811115613e0f57fe5b836007811115613e1b57fe5b1415613e305780600a0a600102915050613f07565b60056007811115613e3d57fe5b836007811115613e4957fe5b1415613e5e5780600a0a600402915050613f07565b60066007811115613e6b57fe5b836007811115613e7757fe5b1415613e8c5780600a0a600a02915050613f07565b600780811115613e9857fe5b836007811115613ea457fe5b1415613eb95780600a0a603202915050613f07565b6000613efa576040517f08c379a0000000000000000000000000000000000000000000000000000000008152600401613ef19061546a565b60405180910390fd5b80600a0a620186a0029150505b919050565b600060016007811115613f1b57fe5b826007811115613f2757fe5b1415613f3657603c9050614075565b60026007811115613f4357fe5b826007811115613f4f57fe5b1415613f5f5761012c9050614075565b60036007811115613f6c57fe5b826007811115613f7857fe5b1415613f8857610e109050614075565b60046007811115613f9557fe5b826007811115613fa157fe5b1415613fb1576138409050614075565b60056007811115613fbe57fe5b826007811115613fca57fe5b1415613fda576170809050614075565b60066007811115613fe757fe5b826007811115613ff357fe5b141561400457620151809050614075565b60078081111561401057fe5b82600781111561401c57fe5b141561402d576203f4809050614075565b600061406e576040517f08c379a00000000000000000000000000000000000000000000000000000000081526004016140659061546a565b60405180910390fd5b6298967f90505b919050565b60008060008054906101000a900473ffffffffffffffffffffffffffffffffffffffff1673ffffffffffffffffffffffffffffffffffffffff1663313ce5676040518163ffffffff1660e01b815260040160206040518083038186803b1580156140e357600080fd5b505afa1580156140f7573d6000803e3d6000fd5b505050506040513d601f19601f8201168201806040525081019061411b91906149a6565b60ff1690506001600781111561412d57fe5b83600781111561413957fe5b141561415857606481600a0a6002028161414f57fe5b049150506142d0565b6002600781111561416557fe5b83600781111561417157fe5b141561419057606481600a0a6010028161418757fe5b049150506142d0565b6003600781111561419d57fe5b8360078111156141a957fe5b14156141c857606481600a0a605002816141bf57fe5b049150506142d0565b600460078111156141d557fe5b8360078111156141e157fe5b141561420057606481600a0a60b402816141f757fe5b049150506142d0565b6005600781111561420d57fe5b83600781111561421957fe5b141561422e5780600a0a6008029150506142d0565b6006600781111561423b57fe5b83600781111561424757fe5b141561425c5780600a0a6010029150506142d0565b60078081111561426857fe5b83600781111561427457fe5b14156142895780600a0a6050029150506142d0565b60006142ca576040517f08c379a00000000000000000000000000000000000000000000000000000000081526004016142c19061546a565b60405180910390fd5b60009150505b919050565b600080828401905083811015614353576040517f08c379a000000000000000000000000000000000000000000000000000000000815260040180806020018281038252601b8152602001807f536166654d6174683a206164646974696f6e206f766572666c6f77000000000081525060200191505060405180910390fd5b8091505092915050565b6040518060400160405280600073ffffffffffffffffffffffffffffffffffffffff168152602001606081525090565b6040518060400160405280600073ffffffffffffffffffffffffffffffffffffffff168152602001600073ffffffffffffffffffffffffffffffffffffffff1681525090565b604051806040016040528060608152602001600081525090565b60006144006143fb84615735565b615704565b9050808382526020820190508285604086028201111561441f57600080fd5b60005b8581101561444f57816144358882614618565b845260208401935060408301925050600181019050614422565b5050509392505050565b600061446c61446784615761565b615704565b9050808382526020820190508285608086028201111561448b57600080fd5b60005b858110156144bb57816144a18882614664565b84526020840193506080830192505060018101905061448e565b5050509392505050565b60006144d86144d38461578d565b615704565b905080838252602082019050828560808602820111156144f757600080fd5b60005b85811015614527578161450d88826146d8565b8452602084019350608083019250506001810190506144fa565b5050509392505050565b60008135905061454081615930565b92915050565b60008135905061455581615947565b92915050565b600082601f83011261456c57600080fd5b813561457c8482602086016143ed565b91505092915050565b600082601f83011261459657600080fd5b81356145a6848260208601614459565b91505092915050565b600082601f8301126145c057600080fd5b81356145d08482602086016144c5565b91505092915050565b6000815190506145e88161595e565b92915050565b6000813590506145fd81615975565b92915050565b60008135905061461281615985565b92915050565b60006040828403121561462a57600080fd5b6146346040615704565b9050600061464484828501614531565b60008301525060206146588482850161474c565b60208301525092915050565b60006080828403121561467657600080fd5b6146806080615704565b90506000614690848285016145ee565b60008301525060206146a484828501614603565b60208301525060406146b88482850161474c565b60408301525060606146cc8482850161474c565b60608301525092915050565b6000608082840312156146ea57600080fd5b6146f46080615704565b9050600061470484828501614531565b60008301525060206147188482850161474c565b602083015250604061472c8482850161474c565b604083015250606061474084828501614603565b60608301525092915050565b60008135905061475b81615995565b92915050565b60008151905061477081615995565b92915050565b600081519050614785816159ac565b92915050565b60006020828403121561479d57600080fd5b60006147ab84828501614531565b91505092915050565b6000602082840312156147c657600080fd5b60006147d484828501614546565b91505092915050565b600080604083850312156147f057600080fd5b60006147fe85828601614531565b925050602061480f85828601614531565b9150509250929050565b6000806040838503121561482c57600080fd5b600061483a85828601614531565b925050602083013567ffffffffffffffff81111561485757600080fd5b6148638582860161455b565b9150509250929050565b6000806040838503121561488057600080fd5b600061488e85828601614531565b925050602061489f8582860161474c565b9150509250929050565b6000602082840312156148bb57600080fd5b600082013567ffffffffffffffff8111156148d557600080fd5b6148e184828501614585565b91505092915050565b6000602082840312156148fc57600080fd5b600082013567ffffffffffffffff81111561491657600080fd5b614922848285016145af565b91505092915050565b60006020828403121561493d57600080fd5b600061494b848285016145d9565b91505092915050565b60006020828403121561496657600080fd5b60006149748482850161474c565b91505092915050565b60006020828403121561498f57600080fd5b600061499d84828501614761565b91505092915050565b6000602082840312156149b857600080fd5b60006149c684828501614776565b91505092915050565b60006149db838361516f565b60408301905092915050565b60006149f38383615247565b60408301905092915050565b614a08816158d2565b82525050565b614a1781615858565b82525050565b614a2681615858565b82525050565b6000614a37826157d9565b614a418185615809565b9350614a4c836157b9565b8060005b83811015614a7d578151614a6488826149cf565b9750614a6f836157ef565b925050600181019050614a50565b5085935050505092915050565b6000614a95826157e4565b614a9f818561581a565b9350614aaa836157c9565b8060005b83811015614adb578151614ac288826149e7565b9750614acd836157fc565b925050600181019050614aae565b5085935050505092915050565b6000614af3826157e4565b614afd818561582b565b9350614b08836157c9565b8060005b83811015614b39578151614b2088826149e7565b9750614b2b836157fc565b925050600181019050614b0c565b5085935050505092915050565b614b4f816158e4565b82525050565b6000614b62601583615847565b91507f5245434950455f414c52454144595f45584953545300000000000000000000006000830152602082019050919050565b6000614ba2601283615847565b91507f494e53554646494349454e545f46554e445300000000000000000000000000006000830152602082019050919050565b6000614be2600b83615847565b91507f4641524d5f4558495354530000000000000000000000000000000000000000006000830152602082019050919050565b6000614c22601583615847565b91507f5245434950455f444f45535f4e4f545f455849535400000000000000000000006000830152602082019050919050565b6000614c62601783615847565b91507f5245534f555243455f414c52454144595f4558495354530000000000000000006000830152602082019050919050565b6000614ca2600d83615847565b91507f4556454e545f494e5f50415354000000000000000000000000000000000000006000830152602082019050919050565b6000614ce2600f83615847565b91507f4e4f5f5245574152445f524541445900000000000000000000000000000000006000830152602082019050919050565b6000614d22600d83615847565b91507f494e56414c49445f4652554954000000000000000000000000000000000000006000830152602082019050919050565b6000614d62600983615847565b91507f4d41585f4c4556454c00000000000000000000000000000000000000000000006000830152602082019050919050565b6000614da2600f83615847565b91507f444f4e4154494f4e5f4641494c454400000000000000000000000000000000006000830152602082019050919050565b6000614de2600f83615847565b91507f4556454e545f494e5f46555455524500000000000000000000000000000000006000830152602082019050919050565b6000614e22600d83615847565b91507f494e56414c49445f4f52444552000000000000000000000000000000000000006000830152602082019050919050565b6000614e62600d83615847565b91507f4556454e545f45585049524544000000000000000000000000000000000000006000830152602082019050919050565b6000614ea2601083615847565b91507f4e4f5f5245574152445f414d4f554e54000000000000000000000000000000006000830152602082019050919050565b6000614ee2601583615847565b91507f494e53554646494349454e545f444f4e4154494f4e00000000000000000000006000830152602082019050919050565b6000614f22601683615847565b91507f53554e464c4f5745525f544f4b454e5f494e5f555345000000000000000000006000830152602082019050919050565b6000614f6260008361583c565b9150600082019050919050565b6000614f7c601783615847565b91507f5245534f555243455f444f45535f4e4f545f45584953540000000000000000006000830152602082019050919050565b6000614fbc600883615847565b91507f4e4f545f524950450000000000000000000000000000000000000000000000006000830152602082019050919050565b6000614ffc600f83615847565b91507f494e56414c49445f4348415249545900000000000000000000000000000000006000830152602082019050919050565b600061503c601283615847565b91507f4d4947524154494f4e5f434f4d504c45544500000000000000000000000000006000830152602082019050919050565b600061507c601783615847565b91507f4d4154455249414c5f444f45535f4e4f545f45584953540000000000000000006000830152602082019050919050565b60006150bc600d83615847565b91507f494e56414c49445f4c4556454c000000000000000000000000000000000000006000830152602082019050919050565b60006150fc600883615847565b91507f4e4f5f46525549540000000000000000000000000000000000000000000000006000830152602082019050919050565b600061513c600783615847565b91507f4e4f5f4641524d000000000000000000000000000000000000000000000000006000830152602082019050919050565b6040820160008201516151856000850182614a0e565b5060208201516151986020850182615276565b50505050565b600060408301600083015184820360008601526151bb8282614a8a565b91505060208301516151d06020860182615276565b508091505092915050565b60006040830160008301516151f36000860182614a0e565b506020830151848203602086015261520b8282614a2c565b9150508091505092915050565b60408201600082015161522e6000850182614a0e565b5060208201516152416020850182614a0e565b50505050565b60408201600082015161525d6000850182614b46565b5060208201516152706020850182615276565b50505050565b61527f816158bb565b82525050565b61528e816158bb565b82525050565b600061529f82614f55565b9150819050919050565b60006020820190506152be6000830184614a1d565b92915050565b60006020820190506152d960008301846149ff565b92915050565b60006060820190506152f460008301866149ff565b61530160208301856149ff565b61530e6040830184615285565b949350505050565b600060408201905061532b60008301856149ff565b6153386020830184615285565b9392505050565b60006040820190506153546000830185614a1d565b6153616020830184615285565b9392505050565b600060208201905081810360008301526153828184614ae8565b905092915050565b600060208201905081810360008301526153a381614b55565b9050919050565b600060208201905081810360008301526153c381614b95565b9050919050565b600060208201905081810360008301526153e381614bd5565b9050919050565b6000602082019050818103600083015261540381614c15565b9050919050565b6000602082019050818103600083015261542381614c55565b9050919050565b6000602082019050818103600083015261544381614c95565b9050919050565b6000602082019050818103600083015261546381614cd5565b9050919050565b6000602082019050818103600083015261548381614d15565b9050919050565b600060208201905081810360008301526154a381614d55565b9050919050565b600060208201905081810360008301526154c381614d95565b9050919050565b600060208201905081810360008301526154e381614dd5565b9050919050565b6000602082019050818103600083015261550381614e15565b9050919050565b6000602082019050818103600083015261552381614e55565b9050919050565b6000602082019050818103600083015261554381614e95565b9050919050565b6000602082019050818103600083015261556381614ed5565b9050919050565b6000602082019050818103600083015261558381614f15565b9050919050565b600060208201905081810360008301526155a381614f6f565b9050919050565b600060208201905081810360008301526155c381614faf565b9050919050565b600060208201905081810360008301526155e381614fef565b9050919050565b600060208201905081810360008301526156038161502f565b9050919050565b600060208201905081810360008301526156238161506f565b9050919050565b60006020820190508181036000830152615643816150af565b9050919050565b60006020820190508181036000830152615663816150ef565b9050919050565b600060208201905081810360008301526156838161512f565b9050919050565b600060208201905081810360008301526156a4818461519e565b905092915050565b600060208201905081810360008301526156c681846151db565b905092915050565b60006040820190506156e36000830184615218565b92915050565b60006020820190506156fe6000830184615285565b92915050565b6000604051905081810181811067ffffffffffffffff8211171561572b5761572a61591a565b5b8060405250919050565b600067ffffffffffffffff8211156157505761574f61591a565b5b602082029050602081019050919050565b600067ffffffffffffffff82111561577c5761577b61591a565b5b602082029050602081019050919050565b600067ffffffffffffffff8211156157a8576157a761591a565b5b602082029050602081019050919050565b6000819050602082019050919050565b6000819050602082019050919050565b600081519050919050565b600081519050919050565b6000602082019050919050565b6000602082019050919050565b600082825260208201905092915050565b600082825260208201905092915050565b600082825260208201905092915050565b600081905092915050565b600082825260208201905092915050565b60006158638261589b565b9050919050565b60006158758261589b565b9050919050565b60008115159050919050565b60008190506158968261591c565b919050565b600073ffffffffffffffffffffffffffffffffffffffff82169050919050565b6000819050919050565b600060ff82169050919050565b60006158dd826158f6565b9050919050565b60006158ef82615888565b9050919050565b600061590182615908565b9050919050565b60006159138261589b565b9050919050565bfe5b6008811061592d5761592c61591a565b5b50565b61593981615858565b811461594457600080fd5b50565b6159508161586a565b811461595b57600080fd5b50565b6159678161587c565b811461597257600080fd5b50565b6002811061598257600080fd5b50565b6008811061599257600080fd5b50565b61599e816158bb565b81146159a957600080fd5b50565b6159b5816158c5565b81146159c057600080fd5b5056fe536166654d6174683a206d756c7469706c69636174696f6e206f766572666c6f77a264697066735822122009f789fe93d5cdd3e1c99a6bea4416e8912d711b847f1bbaa14fe74124e462e664736f6c63430007060033",
  "immutableReferences": {},
  "source": "pragma solidity >=0.6.0 <0.8.0;\r\npragma experimental ABIEncoderV2;\r\n\r\nimport \"@openzeppelin/contracts/math/Math.sol\";\r\n//import \"https://github.com/OpenZeppelin/openzeppelin-contracts/blob/v3.3.0/contracts/math/Math.sol\";\r\n\r\nimport \"./Token.sol\";\r\n\r\n// Items, NFTs or resources\r\ninterface ERCItem {\r\n    function mint(address account, uint256 amount) external;\r\n    function burn(address account, uint256 amount) external;\r\n    function balanceOf(address acount) external returns (uint256);\r\n    \r\n    // Used by resources - items/NFTs won't have this will this be an issue?\r\n    function stake(address account, uint256 amount) external;\r\n    function getStaked(address account) external returns(uint256);\r\n}\r\n\r\ncontract FarmV2 {\r\n    using SafeMath for uint256;\r\n\r\n    TokenV2 private token;\r\n\r\n    struct Square {\r\n        Fruit fruit;\r\n        uint createdAt;\r\n    }\r\n\r\n    struct V1Farm {\r\n        address account;\r\n        uint tokenAmount;\r\n        uint size;\r\n        Fruit fruit;\r\n    }\r\n\r\n    uint farmCount = 0;\r\n    bool isMigrating = true;\r\n    mapping(address => Square[]) fields;\r\n    mapping(address => uint) syncedAt;\r\n    mapping(address => uint) rewardsOpenedAt;\r\n\r\n    constructor(TokenV2 _token) public {\r\n        token = _token;\r\n    }\r\n    \r\n    // Need to upload these in batches so separate from constructor\r\n    function uploadV1Farms(V1Farm[] memory farms) public {\r\n        require(isMigrating, \"MIGRATION_COMPLETE\");\r\n\r\n        uint decimals = token.decimals();\r\n        \r\n        // Carry over farms from V1\r\n        for (uint i=0; i < farms.length; i += 1) {\r\n            V1Farm memory farm = farms[i];\r\n\r\n            Square[] storage land = fields[farm.account];\r\n            \r\n            // Treat them with a ripe plant\r\n            Square memory plant = Square({\r\n                fruit: farm.fruit,\r\n                createdAt: 0\r\n            });\r\n            \r\n            for (uint j=0; j < farm.size; j += 1) {\r\n                land.push(plant);\r\n            }\r\n\r\n            syncedAt[farm.account] = block.timestamp;\r\n            rewardsOpenedAt[farm.account] = block.timestamp;\r\n            \r\n            token.mint(farm.account, farm.tokenAmount * (10**decimals));\r\n            \r\n            farmCount += 1;\r\n        }\r\n    }\r\n    \r\n    function finishMigration() public {\r\n        isMigrating = false;\r\n    }\r\n    \r\n    event FarmCreated(address indexed _address);\r\n    event FarmSynced(address indexed _address);\r\n    event ItemCrafted(address indexed _address, address _item);\r\n\r\n    // Function to receive Ether. msg.data must be empty\r\n    receive() external payable {}\r\n\r\n    function createFarm(address payable _charity) public payable {\r\n        require(syncedAt[msg.sender] == 0, \"FARM_EXISTS\");\r\n\r\n        uint decimals = token.decimals();\r\n\r\n        require(\r\n            // Donation must be at least $0.10 to play\r\n            msg.value >= 1 * 10**(decimals - 1),\r\n            \"INSUFFICIENT_DONATION\"\r\n        );\r\n\r\n        require(\r\n            // The Water Project - double check\r\n            _charity == address(0x060697E9d4EEa886EbeCe57A974Facd53A40865B)\r\n            // Heifer\r\n            || _charity == address(0xD3F81260a44A1df7A7269CF66Abd9c7e4f8CdcD1)\r\n            // Cool Earth\r\n            || _charity == address(0x3c8cB169281196737c493AfFA8F49a9d823bB9c5),\r\n            \"INVALID_CHARITY\"\r\n        );\r\n\r\n\r\n        Square[] storage land = fields[msg.sender];\r\n        Square memory empty = Square({\r\n            fruit: Fruit.None,\r\n            createdAt: 0\r\n        });\r\n        Square memory sunflower = Square({\r\n            fruit: Fruit.Sunflower,\r\n            createdAt: 0\r\n        });\r\n\r\n        // Each farmer starts with 5 fields & 3 Sunflowers\r\n        land.push(empty);\r\n        land.push(sunflower);\r\n        land.push(sunflower);\r\n        land.push(sunflower);\r\n        land.push(empty);\r\n\r\n        syncedAt[msg.sender] = block.timestamp;\r\n        // They must wait X days before opening their first reward\r\n        rewardsOpenedAt[msg.sender] = block.timestamp;\r\n\r\n        (bool sent, bytes memory data) = _charity.call{value: msg.value}(\"\");\r\n        require(sent, \"DONATION_FAILED\");\r\n\r\n        farmCount += 1;\r\n            \r\n        //Emit an event\r\n        emit FarmCreated(msg.sender);\r\n    }\r\n    \r\n    function lastSyncedAt(address owner) private view returns(uint) {\r\n        return syncedAt[owner];\r\n    }\r\n\r\n\r\n    function getLand(address owner) public view returns (Square[] memory) {\r\n        return fields[owner];\r\n    }\r\n\r\n    enum Action { Plant, Harvest }\r\n    enum Fruit { None, Sunflower, Potato, Pumpkin, Beetroot, Cauliflower, Parsnip, Radish }\r\n\r\n    struct Event { \r\n        Action action;\r\n        Fruit fruit;\r\n        uint landIndex;\r\n        uint createdAt;\r\n    }\r\n\r\n    struct Farm {\r\n        Square[] land;\r\n        uint balance;\r\n    }\r\n\r\n    function getHarvestSeconds(Fruit _fruit) private pure returns (uint) {\r\n        if (_fruit == Fruit.Sunflower) {\r\n            // 1 minute\r\n            return 1 * 60;\r\n        } else if (_fruit == Fruit.Potato) {\r\n            // 5 minutes\r\n            return 5 * 60;\r\n        } else if (_fruit == Fruit.Pumpkin) {\r\n            // 1 hour\r\n            return 1  * 60 * 60;\r\n        } else if (_fruit == Fruit.Beetroot) {\r\n            // 4 hours\r\n            return 4 * 60 * 60;\r\n        } else if (_fruit == Fruit.Cauliflower) {\r\n            // 8 hours\r\n            return 8 * 60 * 60;\r\n        } else if (_fruit == Fruit.Parsnip) {\r\n            // 1 day\r\n            return 24 * 60 * 60;\r\n        } else if (_fruit == Fruit.Radish) {\r\n            // 3 days\r\n            return 3 * 24 * 60 * 60;\r\n        }\r\n\r\n        require(false, \"INVALID_FRUIT\");\r\n        return 9999999;\r\n    }\r\n\r\n    function getSeedPrice(Fruit _fruit) private view returns (uint price) {\r\n        uint decimals = token.decimals();\r\n\r\n        if (_fruit == Fruit.Sunflower) {\r\n            //$0.01\r\n            return 1 * 10**decimals / 100;\r\n        } else if (_fruit == Fruit.Potato) {\r\n            // $0.10\r\n            return 10 * 10**decimals / 100;\r\n        } else if (_fruit == Fruit.Pumpkin) {\r\n            // $0.40\r\n            return 40 * 10**decimals / 100;\r\n        } else if (_fruit == Fruit.Beetroot) {\r\n            // $1\r\n            return 1 * 10**decimals;\r\n        } else if (_fruit == Fruit.Cauliflower) {\r\n            // $4\r\n            return 4 * 10**decimals;\r\n        } else if (_fruit == Fruit.Parsnip) {\r\n            // $10\r\n            return 10 * 10**decimals;\r\n        } else if (_fruit == Fruit.Radish) {\r\n            // $50\r\n            return 50 * 10**decimals;\r\n        }\r\n\r\n        require(false, \"INVALID_FRUIT\");\r\n\r\n        return 100000 * 10**decimals;\r\n    }\r\n\r\n    function getFruitPrice(Fruit _fruit) private view returns (uint price) {\r\n        uint decimals = token.decimals();\r\n\r\n        if (_fruit == Fruit.Sunflower) {\r\n            // $0.02\r\n            return 2 * 10**decimals / 100;\r\n        } else if (_fruit == Fruit.Potato) {\r\n            // $0.16\r\n            return 16 * 10**decimals / 100;\r\n        } else if (_fruit == Fruit.Pumpkin) {\r\n            // $0.80\r\n            return 80 * 10**decimals / 100;\r\n        } else if (_fruit == Fruit.Beetroot) {\r\n            // $1.8\r\n            return 180 * 10**decimals / 100;\r\n        } else if (_fruit == Fruit.Cauliflower) {\r\n            // $8\r\n            return 8 * 10**decimals;\r\n        } else if (_fruit == Fruit.Parsnip) {\r\n            // $16\r\n            return 16 * 10**decimals;\r\n        } else if (_fruit == Fruit.Radish) {\r\n            // $80\r\n            return 80 * 10**decimals;\r\n        }\r\n\r\n        require(false, \"INVALID_FRUIT\");\r\n\r\n        return 0;\r\n    }\r\n    \r\n    function requiredLandSize(Fruit _fruit) private pure returns (uint size) {\r\n        if (_fruit == Fruit.Sunflower || _fruit == Fruit.Potato) {\r\n            return 5;\r\n        } else if (_fruit == Fruit.Pumpkin || _fruit == Fruit.Beetroot) {\r\n            return 8;\r\n        } else if (_fruit == Fruit.Cauliflower) {\r\n            return 11;\r\n        } else if (_fruit == Fruit.Parsnip) {\r\n            return 14;\r\n        } else if (_fruit == Fruit.Radish) {\r\n            return 17;\r\n        }\r\n\r\n        require(false, \"INVALID_FRUIT\");\r\n\r\n        return 99;\r\n    }\r\n    \r\n       \r\n    function getLandPrice(uint landSize) private view returns (uint price) {\r\n        uint decimals = token.decimals();\r\n        if (landSize <= 5) {\r\n            // $1\r\n            return 1 * 10**decimals;\r\n        } else if (landSize <= 8) {\r\n            // 50\r\n            return 50 * 10**decimals;\r\n        } else if (landSize <= 11) {\r\n            // $500\r\n            return 500 * 10**decimals;\r\n        }\r\n        \r\n        // $2500\r\n        return 2500 * 10**decimals;\r\n    }\r\n\r\n    modifier hasFarm {\r\n        require(lastSyncedAt(msg.sender) > 0, \"NO_FARM\");\r\n        _;\r\n    }\r\n     \r\n    uint private THIRTY_MINUTES = 30 * 60;\r\n\r\n    function buildFarm(Event[] memory _events) private view hasFarm returns (Farm memory currentFarm) {\r\n        Square[] memory land = fields[msg.sender];\r\n        uint balance = token.balanceOf(msg.sender);\r\n        \r\n        for (uint index = 0; index < _events.length; index++) {\r\n            Event memory farmEvent = _events[index];\r\n\r\n            uint thirtyMinutesAgo = block.timestamp.sub(THIRTY_MINUTES); \r\n            require(farmEvent.createdAt >= thirtyMinutesAgo, \"EVENT_EXPIRED\");\r\n            require(farmEvent.createdAt >= lastSyncedAt(msg.sender), \"EVENT_IN_PAST\");\r\n            require(farmEvent.createdAt <= block.timestamp, \"EVENT_IN_FUTURE\");\r\n\r\n            if (index > 0) {\r\n                require(farmEvent.createdAt >= _events[index - 1].createdAt, \"INVALID_ORDER\");\r\n            }\r\n\r\n            if (farmEvent.action == Action.Plant) {\r\n                require(land.length >= requiredLandSize(farmEvent.fruit), \"INVALID_LEVEL\");\r\n                \r\n                uint price = getSeedPrice(farmEvent.fruit);\r\n                uint fmcPrice = getMarketPrice(price);\r\n                require(balance >= fmcPrice, \"INSUFFICIENT_FUNDS\");\r\n\r\n                balance = balance.sub(fmcPrice);\r\n\r\n                Square memory plantedSeed = Square({\r\n                    fruit: farmEvent.fruit,\r\n                    createdAt: farmEvent.createdAt\r\n                });\r\n                land[farmEvent.landIndex] = plantedSeed;\r\n            } else if (farmEvent.action == Action.Harvest) {\r\n                Square memory square = land[farmEvent.landIndex];\r\n                require(square.fruit != Fruit.None, \"NO_FRUIT\");\r\n\r\n                uint duration = farmEvent.createdAt.sub(square.createdAt);\r\n                uint secondsToHarvest = getHarvestSeconds(square.fruit);\r\n                require(duration >= secondsToHarvest, \"NOT_RIPE\");\r\n\r\n                // Clear the land\r\n                Square memory emptyLand = Square({\r\n                    fruit: Fruit.None,\r\n                    createdAt: 0\r\n                });\r\n                land[farmEvent.landIndex] = emptyLand;\r\n\r\n                uint price = getFruitPrice(square.fruit);\r\n                uint fmcPrice = getMarketPrice(price);\r\n\r\n                balance = balance.add(fmcPrice);\r\n            }\r\n        }\r\n\r\n        return Farm({\r\n            land: land,\r\n            balance: balance\r\n        });\r\n    }\r\n\r\n\r\n    function sync(Event[] memory _events) public hasFarm returns (Farm memory) {\r\n        Farm memory farm = buildFarm(_events);\r\n\r\n        // Update the land\r\n        Square[] storage land = fields[msg.sender];\r\n        for (uint i=0; i < farm.land.length; i += 1) {\r\n            land[i] = farm.land[i];\r\n        }\r\n        \r\n        syncedAt[msg.sender] = block.timestamp;\r\n        \r\n        uint balance = token.balanceOf(msg.sender);\r\n        // Update the balance - mint or burn\r\n        if (farm.balance > balance) {\r\n            uint profit = farm.balance.sub(balance);\r\n            token.mint(msg.sender, profit);\r\n        } else if (farm.balance < balance) {\r\n            uint loss = balance.sub(farm.balance);\r\n            token.burn(msg.sender, loss);\r\n        }\r\n\r\n        emit FarmSynced(msg.sender);\r\n\r\n        return farm;\r\n    }\r\n\r\n    function levelUp() public hasFarm {\r\n        require(fields[msg.sender].length <= 17, \"MAX_LEVEL\");\r\n\r\n        \r\n        Square[] storage land = fields[msg.sender];\r\n\r\n        uint price = getLandPrice(land.length);\r\n        uint fmcPrice = getMarketPrice(price);\r\n        uint balance = token.balanceOf(msg.sender);\r\n\r\n        require(balance >= fmcPrice, \"INSUFFICIENT_FUNDS\");\r\n        \r\n        // Store rewards in the Farm Contract to redistribute\r\n        token.transferFrom(msg.sender, address(this), fmcPrice);\r\n        \r\n        // Add 3 sunflower fields in the new fields\r\n        Square memory sunflower = Square({\r\n            fruit: Fruit.Sunflower,\r\n            // Make them immediately harvestable in case they spent all their tokens\r\n            createdAt: 0\r\n        });\r\n\r\n        for (uint index = 0; index < 3; index++) {\r\n            land.push(sunflower);\r\n        }\r\n\r\n        emit FarmSynced(msg.sender);\r\n    }\r\n\r\n    // How many tokens do you get per dollar\r\n    // Algorithm is totalSupply / 10000 but we do this in gradual steps to avoid widly flucating prices between plant & harvest\r\n    function getMarketRate() private view returns (uint conversion) {\r\n        uint decimals = token.decimals();\r\n        uint totalSupply = token.totalSupply();\r\n\r\n        // Less than 100, 000 tokens\r\n        if (totalSupply < (100000 * 10**decimals)) {\r\n            // 1 Farm Dollar gets you 1 FMC token\r\n            return 1;\r\n        }\r\n\r\n        // Less than 500, 000 tokens\r\n        if (totalSupply < (500000 * 10**decimals)) {\r\n            return 5;\r\n        }\r\n\r\n        // Less than 1, 000, 000 tokens\r\n        if (totalSupply < (1000000 * 10**decimals)) {\r\n            return 10;\r\n        }\r\n\r\n        // Less than 5, 000, 000 tokens\r\n        if (totalSupply < (5000000 * 10**decimals)) {\r\n            return 50;\r\n        }\r\n\r\n        // Less than 10, 000, 000 tokens\r\n        if (totalSupply < (10000000 * 10**decimals)) {\r\n            return 100;\r\n        }\r\n\r\n        // Less than 50, 000, 000 tokens\r\n        if (totalSupply < (50000000 * 10**decimals)) {\r\n            return 500;\r\n        }\r\n\r\n        // Less than 100, 000, 000 tokens\r\n        if (totalSupply < (100000000 * 10**decimals)) {\r\n            return 1000;\r\n        }\r\n\r\n        // Less than 500, 000, 000 tokens\r\n        if (totalSupply < (500000000 * 10**decimals)) {\r\n            return 5000;\r\n        }\r\n\r\n        // Less than 1, 000, 000, 000 tokens\r\n        if (totalSupply < (1000000000 * 10**decimals)) {\r\n            return 10000;\r\n        }\r\n\r\n        // 1 Farm Dollar gets you a 0.00001 of a token - Linear growth from here\r\n        return totalSupply.div(10000);\r\n    }\r\n\r\n    function getMarketPrice(uint price) public view returns (uint conversion) {\r\n        uint marketRate = getMarketRate();\r\n\r\n        return price.div(marketRate);\r\n    }\r\n    \r\n    function getFarm(address account) public view returns (Square[] memory farm) {\r\n        return fields[account];\r\n    }\r\n    \r\n    function getFarmCount() public view returns (uint count) {\r\n        return farmCount;\r\n    }\r\n\r\n    \r\n    // Depending on the fields you have determines your cut of the rewards.\r\n    function myReward() public view hasFarm returns (uint amount) {        \r\n        uint lastOpenDate = rewardsOpenedAt[msg.sender];\r\n\r\n        // Block timestamp is seconds based\r\n        uint threeDaysAgo = block.timestamp.sub(60 * 60 * 24 * 3); \r\n\r\n        require(lastOpenDate < threeDaysAgo, \"NO_REWARD_READY\");\r\n\r\n        uint landSize = fields[msg.sender].length;\r\n        // E.g. $1000\r\n        uint farmBalance = token.balanceOf(address(this));\r\n        // E.g. $1000 / 500 farms = $2 \r\n        uint farmShare = farmBalance / farmCount;\r\n\r\n        if (landSize <= 5) {\r\n            // E.g $0.2\r\n            return farmShare.div(10);\r\n        } else if (landSize <= 8) {\r\n            // E.g $0.4\r\n            return farmShare.div(5);\r\n        } else if (landSize <= 11) {\r\n            // E.g $1\r\n            return farmShare.div(2);\r\n        }\r\n        \r\n        // E.g $3\r\n        return farmShare.mul(3).div(2);\r\n    }\r\n\r\n    function receiveReward() public hasFarm {\r\n        uint amount = myReward();\r\n\r\n        require(amount > 0, \"NO_REWARD_AMOUNT\");\r\n\r\n        rewardsOpenedAt[msg.sender] = block.timestamp;\r\n\r\n        token.transfer(msg.sender, amount);\r\n    }\r\n\r\n    /**\r\n        Multi-token economy configurability below\r\n     */\r\n    // An in game material - Crafted Item, NFT or resource\r\n    struct Material {\r\n        address materialAddress;\r\n        bool exists;\r\n    }\r\n    \r\n    struct Cost {\r\n        address materialAddress;\r\n        uint amount;\r\n    }\r\n\r\n    struct Recipe {\r\n        address outputAddress;\r\n        Cost[] costs;\r\n    }\r\n\r\n    struct Resource {\r\n        address outputAddress;\r\n        address inputAddress;\r\n    }\r\n\r\n    mapping(address => Resource) resources;\r\n    mapping(address => Recipe) recipes;\r\n    mapping(address => Material) materials;\r\n\r\n    // Put down a resource - tokens have their own mechanism for reflecting rewards\r\n    function stake(address resourceAddress, uint amount) public {\r\n        Material memory material = materials[resourceAddress];\r\n        require(material.exists, \"RESOURCE_DOES_NOT_EXIST\");\r\n\r\n        Resource memory resource = resources[resourceAddress];\r\n\r\n        ERCItem(resource.inputAddress).burn(msg.sender, amount);\r\n\r\n\r\n        // The resource contract will determine tokenomics and what to do with staked amount\r\n        ERCItem(resource.outputAddress).stake(msg.sender, amount);\r\n    }\r\n\r\n    function createRecipe(address tokenAddress, Cost[] memory costs) public {\r\n        require(tokenAddress != address(token), \"SUNFLOWER_TOKEN_IN_USE\");\r\n        require(!materials[tokenAddress].exists, \"RECIPE_ALREADY_EXISTS\");\r\n\r\n        // Ensure all materials are setup\r\n        for (uint i=0; i < costs.length; i += 1) {\r\n            address input = costs[i].materialAddress;\r\n            Material memory material = materials[input];\r\n\r\n            require(input == address(token) || material.exists, \"MATERIAL_DOES_NOT_EXIST\");\r\n            \r\n            recipes[tokenAddress].costs.push(costs[i]);\r\n        }\r\n\r\n        materials[tokenAddress] = Material({\r\n            exists: true,\r\n            materialAddress: tokenAddress\r\n        });\r\n    }\r\n\r\n    function createResource(address resourceAddress, address requires) public {\r\n        require(resourceAddress != address(token), \"SUNFLOWER_TOKEN_IN_USE\");\r\n        require(!materials[resourceAddress].exists, \"RESOURCE_ALREADY_EXISTS\");\r\n\r\n        // Check the required material is setup\r\n        require(materials[requires].exists, \"MATERIAL_DOES_NOT_EXIST\");\r\n\r\n        resources[resourceAddress] = Resource({\r\n            outputAddress: resourceAddress,\r\n            inputAddress: requires\r\n        });\r\n        \r\n        materials[resourceAddress] = Material({\r\n            exists: true,\r\n            materialAddress: resourceAddress\r\n        });\r\n    }\r\n\r\n    function burnCosts(address recipeAddress, uint total) private {\r\n        Recipe memory recipe = recipes[recipeAddress];\r\n\r\n        // ERC20 contracts will validate as needed\r\n        for (uint i=0; i < recipe.costs.length; i += 1) {\r\n            Cost memory cost = recipe.costs[i];\r\n\r\n            uint price = cost.amount * total;\r\n\r\n            // Never burn SFF - Store rewards in the Farm Contract to redistribute\r\n            if (cost.materialAddress == address(token)) {\r\n                token.transferFrom(msg.sender, address(this), price);\r\n            } else {\r\n                ERCItem(cost.materialAddress).burn(msg.sender, price);\r\n            }\r\n        }\r\n    }\r\n\r\n    function craft(address recipeAddress, uint amount) public {\r\n        Material memory material = materials[recipeAddress];\r\n                \r\n        require(material.exists, \"RECIPE_DOES_NOT_EXIST\");\r\n        \r\n        burnCosts(recipeAddress, amount);\r\n\r\n        ERCItem(recipeAddress).mint(msg.sender, amount);\r\n        \r\n        emit ItemCrafted(msg.sender, recipeAddress);\r\n    }\r\n\r\n    function mintNFT(address recipeAddress, uint tokenId) public {\r\n        Material memory material = materials[recipeAddress];\r\n                \r\n        require(material.exists, \"RECIPE_DOES_NOT_EXIST\");\r\n        \r\n        burnCosts(recipeAddress, 1);\r\n\r\n        ERCItem(recipeAddress).mint(msg.sender, tokenId);\r\n        \r\n        emit ItemCrafted(msg.sender, recipeAddress);\r\n    }\r\n    \r\n    function getRecipe(address recipeAddress) public view returns (Recipe memory recipe) {\r\n        return recipes[recipeAddress];\r\n    }\r\n\r\n    function getResource(address resourceAddress) public view returns (Resource memory resource) {\r\n        return resources[resourceAddress];\r\n    }\r\n}\r\n",
  "sourcePath": "/mnt/c/Users/nfmelendez/crypto/sunflower-farmers/src/contracts/Farm.sol",
  "compiler": {
    "name": "solc",
    "version": "0.7.6+commit.7338295f.Emscripten.clang"
  },
  "schemaVersion": "3.4.4",
  "updatedAt": "2022-01-20T20:23:04.830Z",
  "networkType": "ethereum",
  "devdoc": {
    "kind": "dev",
    "methods": {},
    "version": 1
  },
  "userdoc": {
    "kind": "user",
    "methods": {},
    "version": 1
  }
}