{
  "contractName": "Wood",
  "abi": [
    {
      "inputs": [],
      "stateMutability": "payable",
      "type": "constructor",
      "payable": true
    },
    {
      "anonymous": false,
      "inputs": [
        {
          "indexed": true,
          "internalType": "address",
          "name": "owner",
          "type": "address"
        },
        {
          "indexed": true,
          "internalType": "address",
          "name": "spender",
          "type": "address"
        },
        {
          "indexed": false,
          "internalType": "uint256",
          "name": "value",
          "type": "uint256"
        }
      ],
      "name": "Approval",
      "type": "event"
    },
    {
      "anonymous": false,
      "inputs": [
        {
          "indexed": true,
          "internalType": "address",
          "name": "from",
          "type": "address"
        },
        {
          "indexed": false,
          "internalType": "address",
          "name": "to",
          "type": "address"
        }
      ],
      "name": "MinterChanged",
      "type": "event"
    },
    {
      "anonymous": false,
      "inputs": [
        {
          "indexed": true,
          "internalType": "address",
          "name": "from",
          "type": "address"
        },
        {
          "indexed": true,
          "internalType": "address",
          "name": "to",
          "type": "address"
        },
        {
          "indexed": false,
          "internalType": "uint256",
          "name": "value",
          "type": "uint256"
        }
      ],
      "name": "Transfer",
      "type": "event"
    },
    {
      "inputs": [
        {
          "internalType": "address",
          "name": "owner",
          "type": "address"
        },
        {
          "internalType": "address",
          "name": "spender",
          "type": "address"
        }
      ],
      "name": "allowance",
      "outputs": [
        {
          "internalType": "uint256",
          "name": "",
          "type": "uint256"
        }
      ],
      "stateMutability": "view",
      "type": "function",
      "constant": true
    },
    {
      "inputs": [
        {
          "internalType": "address",
          "name": "spender",
          "type": "address"
        },
        {
          "internalType": "uint256",
          "name": "amount",
          "type": "uint256"
        }
      ],
      "name": "approve",
      "outputs": [
        {
          "internalType": "bool",
          "name": "",
          "type": "bool"
        }
      ],
      "stateMutability": "nonpayable",
      "type": "function"
    },
    {
      "inputs": [
        {
          "internalType": "address",
          "name": "account",
          "type": "address"
        }
      ],
      "name": "balanceOf",
      "outputs": [
        {
          "internalType": "uint256",
          "name": "",
          "type": "uint256"
        }
      ],
      "stateMutability": "view",
      "type": "function",
      "constant": true
    },
    {
      "inputs": [
        {
          "internalType": "address",
          "name": "account",
          "type": "address"
        },
        {
          "internalType": "uint256",
          "name": "amount",
          "type": "uint256"
        }
      ],
      "name": "burnFrom",
      "outputs": [],
      "stateMutability": "nonpayable",
      "type": "function"
    },
    {
      "inputs": [],
      "name": "decimals",
      "outputs": [
        {
          "internalType": "uint8",
          "name": "",
          "type": "uint8"
        }
      ],
      "stateMutability": "view",
      "type": "function",
      "constant": true
    },
    {
      "inputs": [
        {
          "internalType": "address",
          "name": "spender",
          "type": "address"
        },
        {
          "internalType": "uint256",
          "name": "subtractedValue",
          "type": "uint256"
        }
      ],
      "name": "decreaseAllowance",
      "outputs": [
        {
          "internalType": "bool",
          "name": "",
          "type": "bool"
        }
      ],
      "stateMutability": "nonpayable",
      "type": "function"
    },
    {
      "inputs": [
        {
          "internalType": "address",
          "name": "spender",
          "type": "address"
        },
        {
          "internalType": "uint256",
          "name": "addedValue",
          "type": "uint256"
        }
      ],
      "name": "increaseAllowance",
      "outputs": [
        {
          "internalType": "bool",
          "name": "",
          "type": "bool"
        }
      ],
      "stateMutability": "nonpayable",
      "type": "function"
    },
    {
      "inputs": [],
      "name": "minter",
      "outputs": [
        {
          "internalType": "address",
          "name": "",
          "type": "address"
        }
      ],
      "stateMutability": "view",
      "type": "function",
      "constant": true
    },
    {
      "inputs": [],
      "name": "name",
      "outputs": [
        {
          "internalType": "string",
          "name": "",
          "type": "string"
        }
      ],
      "stateMutability": "view",
      "type": "function",
      "constant": true
    },
    {
      "inputs": [],
      "name": "symbol",
      "outputs": [
        {
          "internalType": "string",
          "name": "",
          "type": "string"
        }
      ],
      "stateMutability": "view",
      "type": "function",
      "constant": true
    },
    {
      "inputs": [],
      "name": "totalSupply",
      "outputs": [
        {
          "internalType": "uint256",
          "name": "",
          "type": "uint256"
        }
      ],
      "stateMutability": "view",
      "type": "function",
      "constant": true
    },
    {
      "inputs": [
        {
          "internalType": "address",
          "name": "recipient",
          "type": "address"
        },
        {
          "internalType": "uint256",
          "name": "amount",
          "type": "uint256"
        }
      ],
      "name": "transfer",
      "outputs": [
        {
          "internalType": "bool",
          "name": "",
          "type": "bool"
        }
      ],
      "stateMutability": "nonpayable",
      "type": "function"
    },
    {
      "inputs": [
        {
          "internalType": "address",
          "name": "farm",
          "type": "address"
        }
      ],
      "name": "passMinterRole",
      "outputs": [
        {
          "internalType": "bool",
          "name": "",
          "type": "bool"
        }
      ],
      "stateMutability": "nonpayable",
      "type": "function"
    },
    {
      "inputs": [
        {
          "internalType": "address",
          "name": "account",
          "type": "address"
        },
        {
          "internalType": "uint256",
          "name": "amount",
          "type": "uint256"
        }
      ],
      "name": "premine",
      "outputs": [],
      "stateMutability": "nonpayable",
      "type": "function"
    },
    {
      "inputs": [
        {
          "internalType": "uint256",
          "name": "amount",
          "type": "uint256"
        }
      ],
      "name": "burn",
      "outputs": [],
      "stateMutability": "nonpayable",
      "type": "function"
    },
    {
      "inputs": [
        {
          "internalType": "address",
          "name": "account",
          "type": "address"
        },
        {
          "internalType": "uint256",
          "name": "amount",
          "type": "uint256"
        }
      ],
      "name": "burn",
      "outputs": [],
      "stateMutability": "nonpayable",
      "type": "function"
    },
    {
      "inputs": [
        {
          "internalType": "address",
          "name": "sender",
          "type": "address"
        },
        {
          "internalType": "address",
          "name": "recipient",
          "type": "address"
        },
        {
          "internalType": "uint256",
          "name": "amount",
          "type": "uint256"
        }
      ],
      "name": "transferFrom",
      "outputs": [
        {
          "internalType": "bool",
          "name": "",
          "type": "bool"
        }
      ],
      "stateMutability": "nonpayable",
      "type": "function"
    },
    {
      "inputs": [
        {
          "internalType": "address",
          "name": "account",
          "type": "address"
        }
      ],
      "name": "getAvailable",
      "outputs": [
        {
          "internalType": "uint256",
          "name": "",
          "type": "uint256"
        }
      ],
      "stateMutability": "view",
      "type": "function",
      "constant": true
    },
    {
      "inputs": [
        {
          "internalType": "address",
          "name": "account",
          "type": "address"
        }
      ],
      "name": "getRecoveryTime",
      "outputs": [
        {
          "internalType": "uint256",
          "name": "",
          "type": "uint256"
        }
      ],
      "stateMutability": "view",
      "type": "function",
      "constant": true
    },
    {
      "inputs": [
        {
          "internalType": "address",
          "name": "account",
          "type": "address"
        },
        {
          "internalType": "uint256",
          "name": "amount",
          "type": "uint256"
        }
      ],
      "name": "stake",
      "outputs": [],
      "stateMutability": "nonpayable",
      "type": "function"
    }
  ],
  "bytecode": "0x6080604052610e10600655678ac7230489e800006007556040518060400160405280601381526020017f53756e666c6f776572204c616e6420576f6f64000000000000000000000000008152506040518060400160405280600381526020017f534c57000000000000000000000000000000000000000000000000000000000081525081600390805190602001906200009a929190620003a0565b508060049080519060200190620000b3929190620003a0565b506012600560006101000a81548160ff021916908360ff160217905550505033600560016101000a81548173ffffffffffffffffffffffffffffffffffffffff021916908373ffffffffffffffffffffffffffffffffffffffff1602179055506200012e3368925e06eec972b000006200013460201b60201c565b62000456565b600073ffffffffffffffffffffffffffffffffffffffff168273ffffffffffffffffffffffffffffffffffffffff161415620001d8576040517f08c379a000000000000000000000000000000000000000000000000000000000815260040180806020018281038252601f8152602001807f45524332303a206d696e7420746f20746865207a65726f20616464726573730081525060200191505060405180910390fd5b620001ec600083836200031260201b60201c565b62000208816002546200031760201b6200136d1790919060201c565b60028190555062000266816000808573ffffffffffffffffffffffffffffffffffffffff1673ffffffffffffffffffffffffffffffffffffffff168152602001908152602001600020546200031760201b6200136d1790919060201c565b6000808473ffffffffffffffffffffffffffffffffffffffff1673ffffffffffffffffffffffffffffffffffffffff168152602001908152602001600020819055508173ffffffffffffffffffffffffffffffffffffffff16600073ffffffffffffffffffffffffffffffffffffffff167fddf252ad1be2c89b69c2b068fc378daa952ba7f163c4a11628f55a4df523b3ef836040518082815260200191505060405180910390a35050565b505050565b60008082840190508381101562000396576040517f08c379a000000000000000000000000000000000000000000000000000000000815260040180806020018281038252601b8152602001807f536166654d6174683a206164646974696f6e206f766572666c6f77000000000081525060200191505060405180910390fd5b8091505092915050565b828054600181600116156101000203166002900490600052602060002090601f016020900481019282620003d8576000855562000424565b82601f10620003f357805160ff191683800117855562000424565b8280016001018555821562000424579182015b828111156200042357825182559160200191906001019062000406565b5b50905062000433919062000437565b5090565b5b808211156200045257600081600090555060010162000438565b5090565b611ef880620004666000396000f3fe608060405234801561001057600080fd5b506004361061012c5760003560e01c806370a08231116100ad578063a9059cbb11610071578063a9059cbb1461062c578063adc9772e14610690578063d4d2a9cf146106de578063d7fc5b151461072c578063dd62ed3e146107865761012c565b806370a082311461045157806379cc6790146104a957806395d89b41146104f75780639dc29fac1461057a578063a457c2d7146105c85761012c565b8063313ce567116100f4578063313ce567146102ee578063395093511461030f5780633d357b021461037357806342966c68146103cb5780634873861c146103f95761012c565b806306fdde031461013157806307546172146101b4578063095ea7b3146101e857806318160ddd1461024c57806323b872dd1461026a575b600080fd5b6101396107fe565b6040518080602001828103825283818151815260200191508051906020019080838360005b8381101561017957808201518184015260208101905061015e565b50505050905090810190601f1680156101a65780820380516001836020036101000a031916815260200191505b509250505060405180910390f35b6101bc6108a0565b604051808273ffffffffffffffffffffffffffffffffffffffff16815260200191505060405180910390f35b610234600480360360408110156101fe57600080fd5b81019080803573ffffffffffffffffffffffffffffffffffffffff169060200190929190803590602001909291905050506108c6565b60405180821515815260200191505060405180910390f35b6102546108e4565b6040518082815260200191505060405180910390f35b6102d66004803603606081101561028057600080fd5b81019080803573ffffffffffffffffffffffffffffffffffffffff169060200190929190803573ffffffffffffffffffffffffffffffffffffffff169060200190929190803590602001909291905050506108ee565b60405180821515815260200191505060405180910390f35b6102f66109c9565b604051808260ff16815260200191505060405180910390f35b61035b6004803603604081101561032557600080fd5b81019080803573ffffffffffffffffffffffffffffffffffffffff169060200190929190803590602001909291905050506109e0565b60405180821515815260200191505060405180910390f35b6103b56004803603602081101561038957600080fd5b81019080803573ffffffffffffffffffffffffffffffffffffffff169060200190929190505050610a93565b6040518082815260200191505060405180910390f35b6103f7600480360360208110156103e157600080fd5b8101908080359060200190929190505050610b16565b005b61043b6004803603602081101561040f57600080fd5b81019080803573ffffffffffffffffffffffffffffffffffffffff169060200190929190505050610b2a565b6040518082815260200191505060405180910390f35b6104936004803603602081101561046757600080fd5b81019080803573ffffffffffffffffffffffffffffffffffffffff169060200190929190505050610b73565b6040518082815260200191505060405180910390f35b6104f5600480360360408110156104bf57600080fd5b81019080803573ffffffffffffffffffffffffffffffffffffffff16906020019092919080359060200190929190505050610bbb565b005b6104ff610c1d565b6040518080602001828103825283818151815260200191508051906020019080838360005b8381101561053f578082015181840152602081019050610524565b50505050905090810190601f16801561056c5780820380516001836020036101000a031916815260200191505b509250505060405180910390f35b6105c66004803603604081101561059057600080fd5b81019080803573ffffffffffffffffffffffffffffffffffffffff16906020019092919080359060200190929190505050610cbf565b005b610614600480360360408110156105de57600080fd5b81019080803573ffffffffffffffffffffffffffffffffffffffff16906020019092919080359060200190929190505050610d90565b60405180821515815260200191505060405180910390f35b6106786004803603604081101561064257600080fd5b81019080803573ffffffffffffffffffffffffffffffffffffffff16906020019092919080359060200190929190505050610e5d565b60405180821515815260200191505060405180910390f35b6106dc600480360360408110156106a657600080fd5b81019080803573ffffffffffffffffffffffffffffffffffffffff16906020019092919080359060200190929190505050610e7b565b005b61072a600480360360408110156106f457600080fd5b81019080803573ffffffffffffffffffffffffffffffffffffffff169060200190929190803590602001909291905050506110a2565b005b61076e6004803603602081101561074257600080fd5b81019080803573ffffffffffffffffffffffffffffffffffffffff169060200190929190505050611173565b60405180821515815260200191505060405180910390f35b6107e86004803603604081101561079c57600080fd5b81019080803573ffffffffffffffffffffffffffffffffffffffff169060200190929190803573ffffffffffffffffffffffffffffffffffffffff1690602001909291905050506112e6565b6040518082815260200191505060405180910390f35b606060038054600181600116156101000203166002900480601f0160208091040260200160405190810160405280929190818152602001828054600181600116156101000203166002900480156108965780601f1061086b57610100808354040283529160200191610896565b820191906000526020600020905b81548152906001019060200180831161087957829003601f168201915b5050505050905090565b600560019054906101000a900473ffffffffffffffffffffffffffffffffffffffff1681565b60006108da6108d36113f5565b84846113fd565b6001905092915050565b6000600254905090565b6000600560019054906101000a900473ffffffffffffffffffffffffffffffffffffffff1673ffffffffffffffffffffffffffffffffffffffff163373ffffffffffffffffffffffffffffffffffffffff16146109b3576040517f08c379a00000000000000000000000000000000000000000000000000000000081526004018080602001828103825260168152602001807f596f7520617265206e6f7420746865206d696e7465720000000000000000000081525060200191505060405180910390fd5b6109be8484846115f4565b600190509392505050565b6000600560009054906101000a900460ff16905090565b6000610a896109ed6113f5565b84610a8485600160006109fe6113f5565b73ffffffffffffffffffffffffffffffffffffffff1673ffffffffffffffffffffffffffffffffffffffff16815260200190815260200160002060008973ffffffffffffffffffffffffffffffffffffffff1673ffffffffffffffffffffffffffffffffffffffff1681526020019081526020016000205461136d90919063ffffffff16565b6113fd565b6001905092915050565b600080600860008473ffffffffffffffffffffffffffffffffffffffff1673ffffffffffffffffffffffffffffffffffffffff16815260200190815260200160002054905080421115610aeb57600754915050610b11565b60004282039050600081600654039050600654816007540281610b0a57fe5b0493505050505b919050565b610b27610b216113f5565b826118b5565b50565b6000600860008373ffffffffffffffffffffffffffffffffffffffff1673ffffffffffffffffffffffffffffffffffffffff168152602001908152602001600020549050919050565b60008060008373ffffffffffffffffffffffffffffffffffffffff1673ffffffffffffffffffffffffffffffffffffffff168152602001908152602001600020549050919050565b6000610bfa82604051806060016040528060248152602001611e1060249139610beb86610be66113f5565b6112e6565b611a799092919063ffffffff16565b9050610c0e83610c086113f5565b836113fd565b610c1883836118b5565b505050565b606060048054600181600116156101000203166002900480601f016020809104026020016040519081016040528092919081815260200182805460018160011615610100020316600290048015610cb55780601f10610c8a57610100808354040283529160200191610cb5565b820191906000526020600020905b815481529060010190602001808311610c9857829003601f168201915b5050505050905090565b600560019054906101000a900473ffffffffffffffffffffffffffffffffffffffff1673ffffffffffffffffffffffffffffffffffffffff163373ffffffffffffffffffffffffffffffffffffffff1614610d82576040517f08c379a00000000000000000000000000000000000000000000000000000000081526004018080602001828103825260168152602001807f596f7520617265206e6f7420746865206d696e7465720000000000000000000081525060200191505060405180910390fd5b610d8c82826118b5565b5050565b6000610e53610d9d6113f5565b84610e4e85604051806060016040528060258152602001611e9e6025913960016000610dc76113f5565b73ffffffffffffffffffffffffffffffffffffffff1673ffffffffffffffffffffffffffffffffffffffff16815260200190815260200160002060008a73ffffffffffffffffffffffffffffffffffffffff1673ffffffffffffffffffffffffffffffffffffffff16815260200190815260200160002054611a799092919063ffffffff16565b6113fd565b6001905092915050565b6000610e71610e6a6113f5565b84846115f4565b6001905092915050565b600560019054906101000a900473ffffffffffffffffffffffffffffffffffffffff1673ffffffffffffffffffffffffffffffffffffffff163373ffffffffffffffffffffffffffffffffffffffff1614610f3e576040517f08c379a00000000000000000000000000000000000000000000000000000000081526004018080602001828103825260168152602001807f596f7520617265206e6f7420746865206d696e7465720000000000000000000081525060200191505060405180910390fd5b6000610f4983610a93565b905081811015610fc1576040517f08c379a000000000000000000000000000000000000000000000000000000000815260040180806020018281038252601c8152602001807f54686520776f6f6420686173206e6f74207265706c656e69736865640000000081525060200191505060405180910390fd5b600082820390506000816007540390506000600754826006540281610fe257fe5b049050804201600860008873ffffffffffffffffffffffffffffffffffffffff1673ffffffffffffffffffffffffffffffffffffffff168152602001908152602001600020819055506000600390506000670de0b6b3a76400006110446108e4565b8161104b57fe5b04905060006002828161105a57fe5b061415611068576001820191505b60006002600a428161107657fe5b048161107e57fe5b06141561108c576001820191505b61109888838902611b33565b5050505050505050565b600560019054906101000a900473ffffffffffffffffffffffffffffffffffffffff1673ffffffffffffffffffffffffffffffffffffffff163373ffffffffffffffffffffffffffffffffffffffff1614611165576040517f08c379a00000000000000000000000000000000000000000000000000000000081526004018080602001828103825260168152602001807f596f7520617265206e6f7420746865206d696e7465720000000000000000000081525060200191505060405180910390fd5b61116f8282611b33565b5050565b6000600560019054906101000a900473ffffffffffffffffffffffffffffffffffffffff1673ffffffffffffffffffffffffffffffffffffffff163373ffffffffffffffffffffffffffffffffffffffff1614611238576040517f08c379a00000000000000000000000000000000000000000000000000000000081526004018080602001828103825260128152602001807f596f7520617265206e6f74206d696e746572000000000000000000000000000081525060200191505060405180910390fd5b81600560016101000a81548173ffffffffffffffffffffffffffffffffffffffff021916908373ffffffffffffffffffffffffffffffffffffffff1602179055503373ffffffffffffffffffffffffffffffffffffffff167f3b0007eb941cf645526cbb3a4fdaecda9d28ce4843167d9263b536a1f1edc0f683604051808273ffffffffffffffffffffffffffffffffffffffff16815260200191505060405180910390a260019050919050565b6000600160008473ffffffffffffffffffffffffffffffffffffffff1673ffffffffffffffffffffffffffffffffffffffff16815260200190815260200160002060008373ffffffffffffffffffffffffffffffffffffffff1673ffffffffffffffffffffffffffffffffffffffff16815260200190815260200160002054905092915050565b6000808284019050838110156113eb576040517f08c379a000000000000000000000000000000000000000000000000000000000815260040180806020018281038252601b8152602001807f536166654d6174683a206164646974696f6e206f766572666c6f77000000000081525060200191505060405180910390fd5b8091505092915050565b600033905090565b600073ffffffffffffffffffffffffffffffffffffffff168373ffffffffffffffffffffffffffffffffffffffff161415611483576040517f08c379a0000000000000000000000000000000000000000000000000000000008152600401808060200182810382526024815260200180611e7a6024913960400191505060405180910390fd5b600073ffffffffffffffffffffffffffffffffffffffff168273ffffffffffffffffffffffffffffffffffffffff161415611509576040517f08c379a0000000000000000000000000000000000000000000000000000000008152600401808060200182810382526022815260200180611dc86022913960400191505060405180910390fd5b80600160008573ffffffffffffffffffffffffffffffffffffffff1673ffffffffffffffffffffffffffffffffffffffff16815260200190815260200160002060008473ffffffffffffffffffffffffffffffffffffffff1673ffffffffffffffffffffffffffffffffffffffff168152602001908152602001600020819055508173ffffffffffffffffffffffffffffffffffffffff168373ffffffffffffffffffffffffffffffffffffffff167f8c5be1e5ebec7d5bd14f71427d1e84f3dd0314c0f7b2291e5b200ac8c7c3b925836040518082815260200191505060405180910390a3505050565b600073ffffffffffffffffffffffffffffffffffffffff168373ffffffffffffffffffffffffffffffffffffffff16141561167a576040517f08c379a0000000000000000000000000000000000000000000000000000000008152600401808060200182810382526025815260200180611e556025913960400191505060405180910390fd5b600073ffffffffffffffffffffffffffffffffffffffff168273ffffffffffffffffffffffffffffffffffffffff161415611700576040517f08c379a0000000000000000000000000000000000000000000000000000000008152600401808060200182810382526023815260200180611d836023913960400191505060405180910390fd5b61170b838383611cfa565b61177681604051806060016040528060268152602001611dea602691396000808773ffffffffffffffffffffffffffffffffffffffff1673ffffffffffffffffffffffffffffffffffffffff16815260200190815260200160002054611a799092919063ffffffff16565b6000808573ffffffffffffffffffffffffffffffffffffffff1673ffffffffffffffffffffffffffffffffffffffff16815260200190815260200160002081905550611809816000808573ffffffffffffffffffffffffffffffffffffffff1673ffffffffffffffffffffffffffffffffffffffff1681526020019081526020016000205461136d90919063ffffffff16565b6000808473ffffffffffffffffffffffffffffffffffffffff1673ffffffffffffffffffffffffffffffffffffffff168152602001908152602001600020819055508173ffffffffffffffffffffffffffffffffffffffff168373ffffffffffffffffffffffffffffffffffffffff167fddf252ad1be2c89b69c2b068fc378daa952ba7f163c4a11628f55a4df523b3ef836040518082815260200191505060405180910390a3505050565b600073ffffffffffffffffffffffffffffffffffffffff168273ffffffffffffffffffffffffffffffffffffffff16141561193b576040517f08c379a0000000000000000000000000000000000000000000000000000000008152600401808060200182810382526021815260200180611e346021913960400191505060405180910390fd5b61194782600083611cfa565b6119b281604051806060016040528060228152602001611da6602291396000808673ffffffffffffffffffffffffffffffffffffffff1673ffffffffffffffffffffffffffffffffffffffff16815260200190815260200160002054611a799092919063ffffffff16565b6000808473ffffffffffffffffffffffffffffffffffffffff1673ffffffffffffffffffffffffffffffffffffffff16815260200190815260200160002081905550611a0981600254611cff90919063ffffffff16565b600281905550600073ffffffffffffffffffffffffffffffffffffffff168273ffffffffffffffffffffffffffffffffffffffff167fddf252ad1be2c89b69c2b068fc378daa952ba7f163c4a11628f55a4df523b3ef836040518082815260200191505060405180910390a35050565b6000838311158290611b26576040517f08c379a00000000000000000000000000000000000000000000000000000000081526004018080602001828103825283818151815260200191508051906020019080838360005b83811015611aeb578082015181840152602081019050611ad0565b50505050905090810190601f168015611b185780820380516001836020036101000a031916815260200191505b509250505060405180910390fd5b5082840390509392505050565b600073ffffffffffffffffffffffffffffffffffffffff168273ffffffffffffffffffffffffffffffffffffffff161415611bd6576040517f08c379a000000000000000000000000000000000000000000000000000000000815260040180806020018281038252601f8152602001807f45524332303a206d696e7420746f20746865207a65726f20616464726573730081525060200191505060405180910390fd5b611be260008383611cfa565b611bf78160025461136d90919063ffffffff16565b600281905550611c4e816000808573ffffffffffffffffffffffffffffffffffffffff1673ffffffffffffffffffffffffffffffffffffffff1681526020019081526020016000205461136d90919063ffffffff16565b6000808473ffffffffffffffffffffffffffffffffffffffff1673ffffffffffffffffffffffffffffffffffffffff168152602001908152602001600020819055508173ffffffffffffffffffffffffffffffffffffffff16600073ffffffffffffffffffffffffffffffffffffffff167fddf252ad1be2c89b69c2b068fc378daa952ba7f163c4a11628f55a4df523b3ef836040518082815260200191505060405180910390a35050565b505050565b600082821115611d77576040517f08c379a000000000000000000000000000000000000000000000000000000000815260040180806020018281038252601e8152602001807f536166654d6174683a207375627472616374696f6e206f766572666c6f77000081525060200191505060405180910390fd5b81830390509291505056fe45524332303a207472616e7366657220746f20746865207a65726f206164647265737345524332303a206275726e20616d6f756e7420657863656564732062616c616e636545524332303a20617070726f766520746f20746865207a65726f206164647265737345524332303a207472616e7366657220616d6f756e7420657863656564732062616c616e636545524332303a206275726e20616d6f756e74206578636565647320616c6c6f77616e636545524332303a206275726e2066726f6d20746865207a65726f206164647265737345524332303a207472616e736665722066726f6d20746865207a65726f206164647265737345524332303a20617070726f76652066726f6d20746865207a65726f206164647265737345524332303a2064656372656173656420616c6c6f77616e63652062656c6f77207a65726fa2646970667358221220f77ce3dab6da0cce38b1d7355f0fe845661fb40e5a6353f709adbdef19c388f564736f6c63430007060033",
  "immutableReferences": {},
  "source": "// SPDX-License-Identifier: MIT\npragma solidity >=0.6.0 <0.8.0;\n\nimport \"@openzeppelin/contracts/token/ERC20/ERC20.sol\";\nimport \"@openzeppelin/contracts/token/ERC20/ERC20Burnable.sol\";\n\n//import \"https://github.com/OpenZeppelin/openzeppelin-contracts/blob/v3.3.0/contracts/token/ERC20/ERC20.sol\";\n//import \"https://github.com/OpenZeppelin/openzeppelin-contracts/blob/v3.3.0/contracts/token/ERC20/ERC20Burnable.sol\";\n\n\ncontract Wood is ERC20, ERC20Burnable {\n  address public minter;\n  \n  // How long it takes\n  uint RECOVERY_SECONDS = 3600;\n  // How much wood a tree has\n  uint STRENGTH = 10 * (10**18);\n  \n  mapping(address => uint) recoveryTime;\n\n  event MinterChanged(address indexed from, address to);\n\n  constructor() payable ERC20(\"Sunflower Land Wood\", \"SLW\") {\n    minter = msg.sender;\n    _mint(msg.sender, 2700000000000000000000\n    );\n  }\n\n  function passMinterRole(address farm) public returns (bool) {\n    require(msg.sender==minter, \"You are not minter\");\n    minter = farm;\n\n    emit MinterChanged(msg.sender, farm);\n    return true;\n  }\n\n\n  function premine(address account, uint256 amount) public {\n    require(msg.sender == minter, \"You are not the minter\");\n\t_mint(account, amount);\n  }\n  \n  function burn(address account, uint256 amount) public {\n    require(msg.sender == minter, \"You are not the minter\");\n\t_burn(account, amount);\n  }\n  \n    function transferFrom(\n        address sender,\n        address recipient,\n        uint256 amount\n    ) public virtual override returns (bool) {\n        require(msg.sender == minter, \"You are not the minter\");\n        \n        _transfer(sender, recipient, amount);\n        \n        return true;\n    }\n    \n    function getAvailable(address account) public view returns (uint) {\n        uint recoveredAt = recoveryTime[account];\n        \n        if (block.timestamp > recoveredAt) {\n            return STRENGTH;\n        }\n        \n        // A portion of the resource is available\n        uint difference = recoveredAt - block.timestamp;\n        uint secondsRecovered = RECOVERY_SECONDS - difference;\n        \n        return STRENGTH * secondsRecovered / RECOVERY_SECONDS;\n    }\n    \n    function getRecoveryTime(address account) public view returns (uint) {\n        return recoveryTime[account];\n    }\n    \n    function stake(address account, uint amount) public {\n        require(msg.sender == minter, \"You are not the minter\");\n        \n        uint available = getAvailable(account);\n        require(available >= amount, \"The wood has not replenished\");\n        \n        uint newAvailable = available - amount;\n        uint amountToRecover = STRENGTH - newAvailable;\n\n        // How long it will take to get back to full strength\n        uint timeToRecover = (RECOVERY_SECONDS * amountToRecover) / STRENGTH;\n        recoveryTime[account] = block.timestamp + timeToRecover;\n\n        // Pseudo random multiplier\n        uint multiplier = 3;\n        \n        // Total supply is even, increase multiplier\n        uint circulatingSupply = totalSupply() / (10 ** 18);\n        if (circulatingSupply % 2 == 0) {\n            multiplier +=1;\n        }\n        \n        // Seconds are even, increase multiplier\n        if ((block.timestamp / 10) % 2 == 0) {\n            multiplier +=1;\n        }\n        \n        _mint(account, amount * multiplier);\n    }\n}\n",
  "sourcePath": "/mnt/c/Users/nfmelendez/crypto/sunflower-farmers/src/contracts/Wood.sol",
  "compiler": {
    "name": "solc",
    "version": "0.7.6+commit.7338295f.Emscripten.clang"
  },
  "schemaVersion": "3.4.4",
  "updatedAt": "2022-01-20T20:23:04.868Z",
  "networkType": "ethereum",
  "devdoc": {
    "kind": "dev",
    "methods": {
      "allowance(address,address)": {
        "details": "See {IERC20-allowance}."
      },
      "approve(address,uint256)": {
        "details": "See {IERC20-approve}. Requirements: - `spender` cannot be the zero address."
      },
      "balanceOf(address)": {
        "details": "See {IERC20-balanceOf}."
      },
      "burn(uint256)": {
        "details": "Destroys `amount` tokens from the caller. See {ERC20-_burn}."
      },
      "burnFrom(address,uint256)": {
        "details": "Destroys `amount` tokens from `account`, deducting from the caller's allowance. See {ERC20-_burn} and {ERC20-allowance}. Requirements: - the caller must have allowance for ``accounts``'s tokens of at least `amount`."
      },
      "decimals()": {
        "details": "Returns the number of decimals used to get its user representation. For example, if `decimals` equals `2`, a balance of `505` tokens should be displayed to a user as `5,05` (`505 / 10 ** 2`). Tokens usually opt for a value of 18, imitating the relationship between Ether and Wei. This is the value {ERC20} uses, unless {_setupDecimals} is called. NOTE: This information is only used for _display_ purposes: it in no way affects any of the arithmetic of the contract, including {IERC20-balanceOf} and {IERC20-transfer}."
      },
      "decreaseAllowance(address,uint256)": {
        "details": "Atomically decreases the allowance granted to `spender` by the caller. This is an alternative to {approve} that can be used as a mitigation for problems described in {IERC20-approve}. Emits an {Approval} event indicating the updated allowance. Requirements: - `spender` cannot be the zero address. - `spender` must have allowance for the caller of at least `subtractedValue`."
      },
      "increaseAllowance(address,uint256)": {
        "details": "Atomically increases the allowance granted to `spender` by the caller. This is an alternative to {approve} that can be used as a mitigation for problems described in {IERC20-approve}. Emits an {Approval} event indicating the updated allowance. Requirements: - `spender` cannot be the zero address."
      },
      "name()": {
        "details": "Returns the name of the token."
      },
      "symbol()": {
        "details": "Returns the symbol of the token, usually a shorter version of the name."
      },
      "totalSupply()": {
        "details": "See {IERC20-totalSupply}."
      },
      "transfer(address,uint256)": {
        "details": "See {IERC20-transfer}. Requirements: - `recipient` cannot be the zero address. - the caller must have a balance of at least `amount`."
      },
      "transferFrom(address,address,uint256)": {
        "details": "See {IERC20-transferFrom}. Emits an {Approval} event indicating the updated allowance. This is not required by the EIP. See the note at the beginning of {ERC20}. Requirements: - `sender` and `recipient` cannot be the zero address. - `sender` must have a balance of at least `amount`. - the caller must have allowance for ``sender``'s tokens of at least `amount`."
      }
    },
    "version": 1
  },
  "userdoc": {
    "kind": "user",
    "methods": {},
    "version": 1
  }
}